:100000000C94DE000C9406010C9406010C9406017D
:100010000C9406010C9406010C9406010C94060144
:100020000C9406010C9406010C9406010C94060134
:100030000C9406010C9406010C9406010C94060124
:100040000C94F5070C9406010C94C3070C949D07BF
:100050000C9406010C9406010C9406010C94060104
:100060000C9406010C94060100407A10F35A00A08B
:10007000724E18090010A5D4E80000E87648170071
:1000800000E40B54020000CA9A3B000000E1F505B1
:10009000000080969800000040420F000000A086FB
:1000A00001000000102700000000E803000000002D
:1000B0006400000000000A000000000001000000D1
:1000C00000002C76D888DC674F0823DFC1DFAE59EB
:1000D000E1B1B796E5E3E453C63AE651997696E87E
:1000E000E6C28426EB898C9B62ED407C6FFCEFBC02
:1000F0009C9F40F2BAA56FA5F490055A2AF75C932D
:100100006B6CF9676DC11BFCE0E40D47FEF520E662
:10011000B500D0ED902E0300943577050080841E45
:10012000080000204E0A000000C80C333333330FA0
:10013000986E12831141EF8D2114893BE65516CF3D
:10014000FEE6DB18D1844B381BF77C1D901DA4BB49
:10015000E424203284725E228100C9F124ECA1E5FE
:100160003D275A73757445746865726E657455449D
:10017000503A3A626567696E5061636B65742863D3
:100180006F6E73742063686172202A686F73742CB9
:100190002075696E7431365F7420706F7274293BFC
:1001A000206973206E6F7420737570706F72746540
:1001B000642120536F72727921003F0811241FBE01
:1001C000CFEFD8E0DEBFCDBF12E0A0E0B1E0E0EDC0
:1001D000F0E202C005900D92AC31B107D9F724E0EE
:1001E000ACE1B2E001C01D92A331B207E1F710E02B
:1001F000CEEDD0E004C02197FE010E944B0ECD3D14
:10020000D107C9F70E94BE080C9466100C94000038
:10021000FC01538D448D252F30E0842F90E0821B0C
:10022000930B541710F0CF96089501970895FC0191
:10023000918D828D981761F0A28DAE0FBF2FB11DE9
:100240005D968C91928D9F5F9F73928F90E0089541
:100250008FEF9FEF0895FC01918D828D981731F0FB
:10026000828DE80FF11D858D90E008958FEF9FEF4F
:100270000895FC01918D228D892F90E0805C9F4F25
:10028000821B91098F7399270895FC01A48DA80FF3
:10029000B92FB11DA35ABF4F2C91848D90E00196C8
:1002A0008F739927848FA689B7892C93A089B189E8
:1002B0008C91837080648C93938D848D981306C089
:1002C0000288F389E02D80818F7D80830895EF92ED
:1002D000FF920F931F93CF93DF93EC0181E0888F00
:1002E0009B8D8C8D98131AC0E889F989808185FFD0
:1002F00015C09FB7F894EE89FF896083E889F98972
:1003000080818370806480839FBF81E090E0DF9173
:10031000CF911F910F91FF90EF900895F62E0B8DC6
:1003200010E00F5F1F4F0F731127E02E8C8D8E1181
:100330000CC00FB607FCFACFE889F989808185FFE8
:10034000F5CFCE010E944501F1CFEB8DEC0FFD2FD3
:10035000F11DE35AFF4FF0829FB7F8940B8FEA89A3
:10036000FB8980818062CFCFCF93DF93EC01888DB2
:100370008823B9F0AA89BB89E889F9898C9185FD20
:1003800003C0808186FD0DC00FB607FCF7CF8C91AE
:1003900085FFF2CF808185FFEDCFCE010E94450120
:1003A000E9CFDF91CF9108958BE293E00E9439016C
:1003B00021E0892B09F420E0822F089580E090E06D
:1003C000892B29F00E94D40181110C94000008951A
:1003D000AF92BF92CF92DF92EF92FF920F931F9353
:1003E000CF93DF936C017B018B01040F151FEB0191
:1003F0005E01AE18BF08C017D10759F06991D60148
:10040000ED91FC910190F081E02DC6010995892BB9
:1004100079F7C501DF91CF911F910F91FF90EF9078
:10042000DF90CF90BF90AF900895FC01448155813B
:10043000608171818BE293E00C94E8013FB7F894FE
:100440008091210290912202A0912302B091240276
:1004500026B5A89B05C02F3F19F00196A11DB11D1F
:100460003FBFBA2FA92F982F8827BC01CD01620F5B
:10047000711D811D911D42E0660F771F881F991F16
:100480004A95D1F7089581E0089587E08CBF95EEF5
:100490009BBF1ABE8CBF86EE8BBF1ABE089590E03C
:1004A00080E0089597E09CBF87EE8BBF2AB79CBF82
:1004B00088EE8BBF8AB7322F282F9CBF85EE8BBF6B
:1004C0008AB79CBF96EE9BBF9AB789279827892742
:1004D000821B930B4817590708F4CA01A901475119
:1004E000584FFB01DB01A80FB91FEA17FB0739F0D2
:1004F0005CBF4BBF6AB761934F5F5F4FF6CF280F6A
:10050000391F47E04CBF57EE5BBF3ABF4CBF38EED8
:100510003BBF2ABF0895CF93DF931F92CDB7DEB7BD
:10052000DC01ED91FC91028CF38DE02D41E050E077
:10053000BE016F5F7F4F09951816190634F4898143
:1005400090E00F90DF91CF9108958FEF9FEFF9CF5B
:10055000FC0197E09CBF85EE8BBF8AB79CBF26EE5F
:100560002BBF6AB79CBF27EE2BBF2AB79CBF98EE64
:100570009BBF3AB71CBE90E19BBF9AB71CBE4FE031
:100580004BBF4AB71CBE5EE05BBF5AB71CBE7DE0E6
:100590007BBF7AB7708B518B428B938B1CBE91E1E2
:1005A0009BBF4AB71CBE92E19BBF9AB7542F492FFD
:1005B000558B448B982F862F232732272327821B86
:1005C000930B08951CBE83E18BBF8AB71CBE94E1D8
:1005D0009BBF9AB7892798278927FB019C012B5E2F
:1005E0003F4FDB01A40FB51FEA17FB0739F06191FC
:1005F0003CBF2BBF6ABF2F5F3F4FF6CF480F591F3D
:100600001CBE83E18BBF5ABF1CBE84E18BBF4ABFB7
:1006100090E080E00895CF93DF931F92CDB7DEB7CF
:100620006983DC01ED91FC910280F381E02D41E0D2
:1006300050E0BE016F5F7F4F09950F90DF91CF9122
:1006400008951CBE1BBE8FEF8ABF1CBE1BBE82E07E
:100650008ABF90E080E00895FB013281238194817C
:1006600085811CBE1BBE61E06ABF1CBE6DE06BBF16
:100670003ABF1CBE3EE03BBF2ABF1CBE2FE02BBFD3
:100680009ABF1CBE90E19BBF8ABF1CBE81E18BBF9D
:100690005ABF1CBE82E18BBF4ABF81E090E0089543
:1006A0000895DC01ED91FC91008CF18DE02D099411
:1006B0001CBE8BE08BBF7ABF1CBE8CE08BBF6ABFB9
:1006C0001CBE1BBE83E08ABF81E00895FC018489C3
:1006D000958908952AE431E0FC0131832083FB01F0
:1006E0004089518962897389FC0142835383648301
:1006F00075830895DC01ED91FC91028CF38DE02D62
:10070000099490E080E00895FB0101900020E9F752
:100710003197AF01461B570BDC01ED91FC91028034
:10072000F381E02D09948F929F92AF92BF92EF9246
:10073000FF920F931F93CF93DF93CDB7DEB7A197AF
:100740000FB6F894DEBF0FBECDBF7C01FA01CB011E
:1007500019A2223008F42AE08E010F5D1F4F822E6D
:10076000912CB12CA12CBF01A50194010E94010E76
:10077000F901CA016A300CF5605DD8016E938D01F4
:10078000232B242B252B79F790E080E0109721F084
:10079000BD01C7010E948403A1960FB6F894DEBF85
:1007A0000FBECDBFDF91CF911F910F91FF90EF90C2
:1007B000BF90AF909F908F900895695CDECFCF93EC
:1007C000DF93BC018BE293E00E948403EC016CE4B4
:1007D00071E08BE293E00E9484038C0F9D1FDF91F8
:1007E000CF910895CF93DF93C2E6D1E0FE016491EB
:1007F000662339F08BE293E00E9467012196892BF2
:10080000A9F76CE471E08BE293E00E948403989571
:1008100090E080E0DF91CF910895AF92BF92CF92A8
:10082000DF92EF92FF920F931F93CF93DF938C0190
:100830007B0180E091E0D801FC011D923197E9F73E
:10084000842F8064D8014C91482B4C93FB01248168
:1008500035812F5F3F4F11968C911197822B119606
:100860008C9311976081718112968C911297826896
:1008700012968C931297FB0101900020E9F73197B3
:10088000E61BF70B13968C911397E82B1396EC93BA
:100890006801F4E0CF0ED11CEB0109900020E9F7CC
:1008A0002197C61BD70BAE01C6010E944F10CC0D7D
:1008B000DD1DD12CC12CD70114968D919C911597DB
:1008C000C816D90608F07BC0A60183E0440F551F67
:1008D0008A95E1F712968D919C91DC01A40FB51FCA
:1008E0009C9112968C9190FB87F9982F8881892B87
:1008F000DE018D93F70182819381840F951FFC01A6
:1009000020813181232BE9F022813381213031058F
:10091000E9F02230310571F1232B99F4898184604B
:100920008983DE011296F70182819381FA01E80F33
:10093000F91F349684E001900D928A95E1F7DE016B
:100940001696FFEFCF1ADF0AED01B5CF89818860D7
:100950008983DE011296F70182819381FA01E80F03
:10096000F91F349688E001900D928A95E1F7DE0137
:100970001A96E7CF84819581DC010D900020E9F77C
:100980001197A81BB90B8981A82BA9832296F7017F
:1009900082819381FA01E80FF91F64817581DB017F
:1009A0000D900020E9F711975D01A61AB70AA5017D
:1009B000CE010E944F10DE01AA0DBB1DC2CFCE0199
:1009C000801B910BDF91CF911F910F91FF90EF90C2
:1009D000DF90CF90BF90AF900895AC01990F660B58
:1009E000770B2AE08BE293E00C9493038F929F9213
:1009F000AF92BF92CF92DF92EF92FF920F931F932D
:100A0000CF93DF937C01EB016C0182E0C80ED11C17
:100A10004701E5E08E0E911C10E000E0F6014191E7
:100A20006F0150E070E060E02AE0CE010E94930385
:100A30005C01E881F9810190F081E02D6EE2CE0148
:100A400009958A0D9B1D080F191FC814D90431F789
:100A5000F701458150E070E060E02AE0CE010E949D
:100A60009303800F911FDF91CF911F910F91FF9002
:100A7000EF90DF90CF90BF90AF909F908F900895B0
:100A80003F924F925F926F927F928F929F92AF921E
:100A9000BF92CF92DF92EF92FF920F931F93CF936B
:100AA000DF9300D000D000D0CDB7DEB78C017B0142
:100AB0008091290390912A03DC01ED91FC91028839
:100AC000F389E02DA0912703B09128032AE431E0B7
:100AD0003A83298312964D915D916D917C91159782
:100AE0004B835C836D837E8340EA5FE0BE016F5F72
:100AF0007F4F09958091290390912A0360912503E6
:100B000070912603DC01ED91FC910280F381E02DD0
:100B1000A80109958091290390912A03DC01ED91A8
:100B2000FC910688F789E02D099580912903909121
:100B30002A03DC01ED91FC91008CF18DE02D0995EB
:100B4000892B99F38091290390912A0360912503C1
:100B500070912603DC01ED91FC91028CF38DE02D68
:100B600040E051E00995A0902503B0902603F501DF
:100B70003080818190E00097F9F4232D2F7381E07C
:100B800090E0213009F080E026960FB6F894DEBFA1
:100B90000FBECDBFDF91CF911F910F91FF90EF90CE
:100BA000DF90CF90BF90AF909F908F907F906F908D
:100BB0005F904F903F9008950197D70115969C93B1
:100BC0008E9314976501B4E0CB0ED11C038110E025
:100BD00061E070E0C8010E94510ED7018D939C9393
:100BE000892BB1F46FE471E08BE293E00E948403FF
:100BF0008DEA90E00E94ED0466E671E08BE293E0FE
:100C00000E9484036DE471E08BE293E00E94840310
:100C1000A801B601F701808191810E944F100C0D4F
:100C20001D1D68E070E0D70114968D919C910E9483
:100C3000510EF70193838283892BB1F46FE471E045
:100C40008BE293E00E94840381EC90E00E94ED042B
:100C500066E671E08BE293E00E9484036DE471E04C
:100C60008BE293E00E948403F801912C812CD70140
:100C700014968D919C9115978816990608F071C06D
:100C8000240183E0440C551C8A95E1F71296CD901F
:100C9000DC90C40CD51C9081991F9927991F292F8E
:100CA00030E0D6012D933C93DF018D918D018F773C
:100CB000282F30E0D60113963C932E931297992358
:100CC00029F08130B9F038F08230C9F0FFEF8F1A87
:100CD0009F0AF801CCCF3F01B2E06B0E711C01817D
:100CE00010E0A801B301C60104960E944F10060D42
:100CF000171DECCF3F0182E0680E711CF0CF3F0161
:100D0000A2E06A0E711C018110E061E070E0C80190
:100D10000E94510EF60195838483892BB1F46FE410
:100D200071E08BE293E00E94840386EE90E00E94E3
:100D3000ED0466E671E08BE293E00E9484036DE4CB
:100D400071E08BE293E00E948403D70112968D91AB
:100D50009C91480E591EA801B301F201848195812E
:100D6000C4CFEA19FB091E161F060CF406CF80E05B
:100D700090E00ACFCF93DF93EC01888199810097AF
:100D800011F00E94090F198218821D821C821B8299
:100D90001A82DF91CF910895FC01808191810097A3
:100DA00011F00C94090F08950F931F93CF93DF93C5
:100DB000EC0188819981009759F02A813B8126179F
:100DC000370730F081E0DF91CF911F910F910895A7
:100DD0008B016F5F7F4F0E94920F009759F09983AC
:100DE00088831B830A832C813D81232B59F7FC01C7
:100DF0001082E8CF80E0E7CFEF92FF920F931F932E
:100E0000CF93DF93EC01FB01E080F180E114F1046A
:100E100011F10481158101151105A9F08C819D81C5
:100E2000080F191FB801CE010E94D406882399F03B
:100E3000288139818C819D81B701820F931F0E9487
:100E40005F101D830C83CE01DF91CF911F910F9115
:100E5000FF90EF900895CE010E94BA06F4CFEF9272
:100E6000FF920F931F93CF93DF93EC017B018A01D5
:100E7000BA010E94D40681110BC0CE010E94BA06AD
:100E8000CE01DF91CF911F910F91FF90EF900895C8
:100E90001D830C83B701888199810E945F10F0CF78
:100EA000EF92FF920F931F93CF93DF93CDB7DEB7EF
:100EB00062970FB6F894DEBF0FBECDBF8C01CB0199
:100EC000F8011182108213821282158214824AE084
:100ED0009E012F5F3F4F7901B9010E945E0BF70120
:100EE00001900020E9F73197AF014E195F09B70172
:100EF000C8010E942F0762960FB6F894DEBF0FBE9E
:100F0000CDBFDF91CF911F910F91FF90EF9008958A
:100F1000FC011182108213821282158214826115E3
:100F2000710551F0FB0101900020E9F73197AF0105
:100F3000461B570B0C942F0708951F920F920FB664
:100F40000F9211242F933F934F935F936F937F934F
:100F50008F939F93AF93BF93EF93FF938BE293E0B5
:100F60000E944501FF91EF91BF91AF919F918F91A9
:100F70007F916F915F914F913F912F910F900FBE95
:100F80000F901F9018951F920F920FB60F92112479
:100F90002F938F939F93EF93FF93E0913B03F091F7
:100FA0003C038081E0914103F091420382FD1BC02C
:100FB0009081809144038F5F8F7320914503821746
:100FC00041F0E0914403F0E0E55DFC4F958F8093A4
:100FD0004403FF91EF919F918F912F910F900FBE3E
:100FE0000F901F9018958081F4CF1F920F920FB62B
:100FF0000F9211242F933F938F939F93AF93BF939F
:1010000080911D0290911E02A0911F02B0912002BA
:1010100030911C0223E0230F2D3758F50196A11DB6
:10102000B11D20931C0280931D0290931E02A09379
:101030001F02B09320028091210290912202A09180
:101040002302B09124020196A11DB11D80932102BB
:1010500090932202A0932302B0932402BF91AF91F8
:101060009F918F913F912F910F900FBE0F901F90E6
:10107000189526E8230F0296A11DB11DD2CFEBE2F1
:10108000F3E01382128248EE53E060E070E04483A4
:1010900055836683778380E191E09183808385EC3B
:1010A00090E09587848784EC90E09787868780EC32
:1010B00090E0918B808B81EC90E0938B828B82EC23
:1010C00090E0958B848B86EC90E0978B868B118ECD
:1010D000128E138E148EE8ECF3E08AE491E0918393
:1010E00080831282138214821582E6EDF3E09183ED
:1010F00080831282138214821582EEECF3E09183D6
:1011000080831282138214821582ECEDF3E09183C6
:1011100080831282138214821582E2EEF3E09183BF
:1011200080831282138214821582E9E0F4E09183B5
:1011300080831282138214821582EEEEF3E0138212
:101140001282448355836683778322E231E03183C0
:10115000208397878687108A118A128A138A24E04F
:10116000208FE8EEF3E09183808380EC828388EA2D
:10117000838388E3848387E685830895CF93DF9311
:10118000CDB7DEB7AF970FB6F894DEBF0FBECDBFB9
:10119000789484B5826084BD84B5816084BD85B552
:1011A000826085BD85B5816085BD80916E0081605E
:1011B00080936E0010928100809181008260809304
:1011C0008100809181008160809381008091800006
:1011D0008160809380008091B10084608093B10031
:1011E0008091B00081608093B00080917A0084602B
:1011F00080937A0080917A00826080937A00809157
:101200007A00816080937A0080917A008068809370
:101210007A001092C10088E08093D0038093D103BC
:101220008093D2038093D3032AE431E03A83298365
:101230001B821C821D821E821CBE9AE09BBF9AB735
:101240001CBE29E02BBF2AB71CBE8BBF8AB71CBEB1
:1012500037E03BBF3AB73B838C832D839E836BE2A1
:1012600073E0CE0101960E94F6046CE471E08BE21B
:1012700093E00E9484036BE07AE18EEE93E00E949B
:10128000580385E292E090932603809325038EEE27
:1012900093E090932A038093290388EE93E0909340
:1012A0002803809327035E0122E2A20EB11C88244A
:1012B0008394912CE0E06E2EE0E07E2E1BA21AA219
:1012C0001DA21CA28CEA91E09A838983BC82AB8226
:1012D0009E828D8244E050E0BE016F5F7F4F80911F
:1012E0002503909126030E940D04181619062CF070
:1012F0008BEB91E00E94DF0392C1BE016F5F7F4FD5
:101300000E9440050197A1F74D815E8163E0440F83
:10131000551F6A95E1F76B817C81C5010E944F10D2
:1013200089819A810E94090F8B819C810E94090FFB
:101330002EA13FA1C9010297029758F12230310531
:101340000CF475C020FF73C0C90163E070E00E9417
:10135000230E892B09F46BC0E5E0F0E0EE9FC0019D
:10136000EF9F900D900D11242817390794F0C901B3
:10137000BF010E94230E892B09F459C0C901BF0186
:101380006E5F7F4F0E94230E892B09F450C0369662
:10139000E5CF4FE8E42E41E0F42EB701CE010196EF
:1013A0000E94880767EC71E0CE018A960E94880748
:1013B000BE016F5F7F4FCE018A960E94FC060E949D
:1013C0001502CE018A960E94CC06CE0101960E949B
:1013D000CC0661E070E0CE0101960E9450076EECF1
:1013E00071E0CE018A960E948807BE016F5F7F4F31
:1013F000CE018A960E94FC068C01FC01C480D58037
:10140000FFEFCF1ADF0AB6010E94D4068823A1F0AD
:10141000F801208131818481958166ED71E0820F30
:10142000931F0E945F10F801D582C48208C032E881
:10143000E32E31E0F32EB1CFC8010E94BA06C801F5
:101440000E941502CE018A960E94CC06CE0101961A
:101450000E94CC068AA19BA16CE971E0892B11F056
:1014600068E971E0CE0101960E94880768ED71E09D
:10147000CE018A960E948807BE016F5F7F4FCE0122
:101480008A960E94FC060E941502CE018A960E944E
:10149000CC06CE0101960E94CC068CA19DA16FE9DD
:1014A00071E08330910538F4880F991FFC01EA5FE1
:1014B000FE4F60817181CE0101960E94880765EE22
:1014C00071E0CE018A960E948807BE016F5F7F4F50
:1014D000CE018A960E94FC060E941502CE018A96D1
:1014E0000E94CC06CE0101960E94CC068CA19DA143
:1014F000009709F58AA19BA1892B09F45CC06EA114
:101500007FA1CE0101960E9450076DEE71E0CE01E1
:101510008A960E948807BE016F5F7F4FCE018A9630
:101520000E94FC060E941502CE018A960E94CC06FB
:10153000CE0101963EC08130910509F05CC08AA1C0
:101540009BA1892BC1F16EA17FA188A599A51BA69E
:101550001AA61DA61CA61FA61EA68E010F5F1F4F52
:1015600022E044E00E94400B009709F43FC0FC01D8
:1015700001900020E9F73197AF01481B590BBC01DE
:10158000CE018A960E942F076DEE71E0CE01019682
:101590000E948807BE01665D7F4FCE0101960E94C2
:1015A000FC060E941502CE0101960E94CC06CE01D7
:1015B0008A960E94CC068EE491E00E94DF03FA82B4
:1015C000E982BC82AB829E828D8242E050E0BE0105
:1015D0006F5F7F4F80912503909126030E940D0439
:1015E00018161906ACF085EF91E084CECE018A96EC
:1015F0000E94BA06C9CF0297F1F68AA19BA1892B56
:10160000D1F26EA17FA1CE0101960E9488077DCF05
:10161000BE016F5F7F4F0E944005019721F70E9436
:101620001E021B012C0188EBC82E8BE0D82EE12C6A
:10163000F12C0E941E026219730984099509683E03
:10164000734081059105A8F3F1E0CF1AD108E108B4
:10165000F10828EE220E23E0321E411C511CC11459
:10166000D104E104F10429F76114710409F426CED0
:101670000E94D401882309F41ACE0E94000017CEDC
:10168000EF920F931F93CF93DF93E80134E047FD70
:1016900034E1042E000C550B57FF03C051954195C2
:1016A0005109E32E022F242FAE010E94830BCE019D
:1016B000DF91CF911F910F91EF900895BB274A3092
:1016C00031F4992322F4BDE2909581959F4F0C94BB
:1016D0006A0BBB27FB015527AA27880F991FAA1F52
:1016E000A41710F0A41B83955051B9F7A05DAA333D
:1016F00008F0A95DA193009779F7B111B193119208
:10170000CB010C94BA0DA9E0B0E0E9E8FBE00C9441
:10171000D00D6A01F22EB02E102FFBE3AF2EA016D3
:1017200008F41BE31F5F012F27E0AE014F5F5F4FFF
:101730000E94E20CBC018981982F9970913009F4C4
:101740003FC09BE2E1FC04C09E2D9170E0FC3AC0DA
:101750005E2D5071E82FE87083FF46C084E0911140
:1017600001C083E0EF2DE81B8F1508F0E0E0D60103
:101770008E2F20E2552351F1992329F0D6019C9315
:10178000C60101966C0196012D5F3F4FE2FE24C019
:101790008EE4D6018C9391E411969C931197129646
:1017A0008C93D9018E2F90E281111BC0E20FF32F91
:1017B000F11D10828EEF9FEF2996ECE00C94EC0D5A
:1017C0009DE2C6CF90E2C4CF2D9381508111FCCF12
:1017D000CE0ED11CE0E0D0CF8EE6D6018C9391E600
:1017E000DBCF9D938150E0CF482F447082FF3DC0F6
:1017F00084E0911101C083E08F1510F4EF2DE81BF8
:10180000D6018E2F20E2552309F1992329F0D60124
:101810009C93C60101966C0196012D5F3F4FE2FE3D
:101820001BC089E4D6018C938EE411968C9311979A
:1018300086E412968C93D9018E2F90E2882309F4C6
:10184000B5CF9D938150FACF2D9381508111FCCF5C
:10185000CE0ED11CE0E0D9CF89E6D6018C938EE67E
:1018600011968C93119786E6E4CF9B0177FF02C017
:1018700030E020E0A1E0B0E0911102C0B0E0A0E0D3
:10188000F9013196AE0FBF1F8B2C912CBB2009F4B0
:1018900061C05401EFEFAE1ABE0AAA0DBB1DFA16C5
:1018A0001B0619F014F04F2D4A1B511188C0E3FCA0
:1018B00059C07601A42FB0E2A1114FC0C40ED11CB3
:1018C000992309F45BC040E0D6011196F60190839C
:1018D0006D01552309F448C0012F060F9A81582F36
:1018E000507184FF03C0913309F4015010160CF0BD
:1018F00047C0093008F008E0EEE2FE2E5B01A01AB6
:10190000B10885019194819491082F3F320729F401
:10191000D601FC92F60131966F016217730794F1BC
:10192000021713077CF5DB01A21BB30BAA24A394B7
:10193000B12CAC0EBD1EAA0DBB1D11968C91215071
:101940003109D601119628153905F4F0F601808386
:101950006D01DBCFB12CA12CA0CFF701B1937F019A
:10196000A150AACF9111B0CFD601942F50E302C05D
:101970005D9391509111FCCFC40ED11C40E0ACCFCF
:1019800001E0BACF80E3DBCF6217730731F49633FF
:1019900088F4953311F4552369F0F6018083FD0135
:1019A000842F90E2811108C0A40FB11D1C9290E019
:1019B00080E002CF81E3F1CF91938150F3CF911179
:1019C00083CF8ACF283008F027E03327DA01990F38
:1019D000311D87FD916000966105710539F4326013
:1019E0002E5F3D9330E32A95E1F708959F3F30F055
:1019F00080387105610509F03C5F3C5F3D93913093
:101A000008F08068911DDF93CF931F930F93FF928F
:101A1000EF92192F987F9695E92F96959695E90F55
:101A2000FF27EE53FF4F99273327EE24FF24A7010A
:101A3000E70105900894079428F4360FE71EF81E76
:101A4000491F511D660F771F881F991F0694A1F724
:101A50000590079428F4E70EF81E491F561FC11D74
:101A6000770F881F991F661F0694A1F705900794AA
:101A700028F4F80E491F561FC71FD11D880F991F44
:101A8000661F771F0694A1F70590079420F4490F6D
:101A9000561FC71FD81F990F661F771F881F0694F0
:101AA000A9F784911095177041F0D695C795579571
:101AB0004795F794E7941A95C1F7E8E6F0E0689443
:101AC0001590159135916591959105907FE27395EB
:101AD000E118F10A430B560BC90BD009C0F7E10C12
:101AE000F11E431F561FC91FD01D7EF4703311F421
:101AF0008A95E6CFE894015030F0080F0AF40027E9
:101B0000021708F4202F2395022F7A3328F079E367
:101B10007D932A95E9F710C07D932A9589F606945E
:101B200097956795379517951794E118F10A430B28
:101B3000560BC90BD00998F023957E9173957A3393
:101B400008F070E37C932013B8F77E9170617D9369
:101B500030F0839571E37D9370E32A95E1F71124CA
:101B6000EF90FF900F911F91CF91DF91992787FD03
:101B700090950895DC01FC01672F71917723E1F7BF
:101B8000329704C07C916D9370836291AE17BF074A
:101B9000C8F308952F923F924F925F926F927F9277
:101BA0008F929F92AF92BF92CF92DF92EF92FF926D
:101BB0000F931F93CF93DF93CDB7DEB7CA1BDB0B19
:101BC0000FB6F894DEBF0FBECDBF09942A883988BE
:101BD00048885F846E847D848C849B84AA84B984C5
:101BE000C884DF80EE80FD800C811B81AA81B981D1
:101BF000CE0FD11D0FB6F894DEBF0FBECDBFED01E5
:101C00000895A1E21A2EAA1BBB1BFD010DC0AA1F3D
:101C1000BB1FEE1FFF1FA217B307E407F50720F055
:101C2000A21BB30BE40BF50B661F771F881F991FD0
:101C30001A9469F760957095809590959B01AC0119
:101C4000BD01CF01089597FB072E16F4009407D02D
:101C500077FD09D00E94370E07FC05D03EF4909521
:101C600081959F4F0895709561957F4F0895AA1BA8
:101C7000BB1B51E107C0AA1FBB1FA617B70710F077
:101C8000A61BB70B881F991F5A95A9F780959095A9
:101C9000BC01CD010895EE0FFF1F0590F491E02DDA
:101CA00009940F931F93CF93DF93869F8001879FA3
:101CB000100D969F100D1124C8010E946D0EEC01AD
:101CC000009729F0A80170E060E00E945810CE0152
:101CD000DF91CF911F910F9108950F931F93CF9391
:101CE000DF938230910510F482E090E0E0911104DE
:101CF000F091120430E020E0B0E0A0E0309799F4D9
:101D00002115310509F44AC0281B390B243031054F
:101D1000D8F58A819B816115710589F1FB01938357
:101D20008283FE0111C040815181028113814817D5
:101D30005907E0F04817590799F4109761F0129687
:101D40000C93129713961C933296CF01DF91CF918B
:101D50001F910F9108950093110410931204F4CF72
:101D60002115310551F04217530738F0A901DB0165
:101D70009A01BD01DF01F801C1CFEF01F9CF9093C6
:101D8000120480931104CDCFFE01E20FF31F819363
:101D900091932250310939832883D7CF20910F04A2
:101DA00030911004232B41F4209102013091030162
:101DB0003093100420930F04209100013091010111
:101DC0002115310541F42DB73EB7409104015091E2
:101DD0000501241B350BE0910F04F0911004E2176C
:101DE000F307A0F42E1B3F0B2817390778F0AC013E
:101DF0004E5F5F4F2417350748F04E0F5F1F50931B
:101E0000100440930F04819391939FCFF0E0E0E0A2
:101E10009CCFCF93DF930097E9F0FC0132971382B8
:101E20001282A0911104B0911204ED0130E020E083
:101E30001097A1F420813181820F931F20910F040C
:101E4000309110042817390709F061C0F09310048D
:101E5000E0930F04DF91CF910895EA01CE17DF07D9
:101E6000E8F54A815B819E0141155105B1F7E90111
:101E7000FB83EA8349915991C40FD51FEC17FD07E5
:101E800061F4808191810296840F951FE901998305
:101E90008883828193819B838A83F0E0E0E01296BD
:101EA0008D919C9113970097B9F52D913C911197C5
:101EB000CD010296820F931F20910F0430911004E0
:101EC0002817390739F6309751F5109212041092FD
:101ED0001104B0931004A0930F04BCCFD383C2832A
:101EE00040815181840F951FC817D90761F44E5F57
:101EF0005F4F88819981480F591F518340838A81A0
:101F00009B81938382832115310509F0B0CFF09333
:101F10001204E09311049ECFFD01DC01C0CF1382B7
:101F20001282D7CFB0E0A0E0E8E9FFE00C94CC0D3E
:101F30008C01009751F4CB010E946D0E8C01C801F9
:101F4000CDB7DEB7E0E10C94E80DFC01E60FF71F1A
:101F50009C0122503109E217F30708F49DC0D90112
:101F6000CD91DC911197C617D70798F0C530D105F0
:101F700030F3CE0104978617970708F3C61BD70BDB
:101F80002297C193D1936D937C93CF010E94090F47
:101F9000D6CF5B01AC1ABD0A4C018C0E9D1EA091E0
:101FA0001104B0911204512C412CF12CE12C10970A
:101FB00031F580910F04909110048815990509F06E
:101FC0005CC04616570608F058C0809100019091F9
:101FD0000101009741F48DB79EB7409104015091E3
:101FE0000501841B950BE817F90708F055C0F0931D
:101FF0001004E0930F04F90171836083A0CF8D91E9
:102000009C91119712966C90129713967C9013974F
:10201000A815B90559F56C0142E0C40ED11CCA14CB
:10202000DB0420F1AC014A195B09DA01129615971D
:1020300080F06282738251834083D9016D937C93D7
:10204000E114F10471F0D7011396FC93EE9312970B
:1020500076CF22968C0F9D1FF90191838083F30127
:10206000EFCFF0931204E093110469CF481659069C
:1020700008F42C017D01D3019ACFCB010E946D0E93
:102080007C01009749F0AE01B8010E944F10C801D1
:102090000E94090F870153CF10E000E050CFFB01F1
:1020A000DC0102C001900D9241505040D8F70895D4
:1020B000DC0101C06D9341505040E0F70895FB01F1
:1020C000DC0101900D920020E1F70895F894FFCF14
:1020D0000000130480000202090212020000000046
:1020E0006701E8010801B401390117012B01000063
:1020F00000000B03E2028103450251038B024F02F1
:10210000580350032C03F2032103A80252027A035E
:102110006A036603430200000000F6040D0A004D46
:10212000656D6F727920616C6F636174696F6E2089
:102130006572726F7200443A5C505349525C70721F
:102140006F6A5C7372635C70726F746F636F6C2E16
:10215000630069735F6E6F745F7072696D650069AB
:10216000735F7072696D6500594553004E4F00559D
:102170006E6B6E6F776E205479706500636865636F
:102180006B5F69665F7072696D650054535F494E9D
:10219000204572726F72004E616D653A20002046D4
:1021A00069656C6420003A002049732041637475AE
:1021B000616C3A200020547970653A200020446117
:1021C00074613A200054535F4F5554204572726F2A
:1021D000720054535F494E540054535F464C4F4174
:0C21E000540054535F535452494E4700C2
:00000001FF
