:100000000C94DE000C9406010C9406010C9406017D
:100010000C9406010C9406010C9406010C94060144
:100020000C9406010C9406010C9406010C94060134
:100030000C9406010C9406010C9406010C94060124
:100040000C949B090C9406010C9469090C944309C7
:100050000C9406010C9406010C9406010C94060104
:100060000C9406010C94060100407A10F35A00A08B
:10007000724E18090010A5D4E80000E87648170071
:1000800000E40B54020000CA9A3B000000E1F505B1
:10009000000080969800000040420F000000A086FB
:1000A00001000000102700000000E803000000002D
:1000B0006400000000000A000000000001000000D1
:1000C00000002C76D888DC674F0823DFC1DFAE59EB
:1000D000E1B1B796E5E3E453C63AE651997696E87E
:1000E000E6C28426EB898C9B62ED407C6FFCEFBC02
:1000F0009C9F40F2BAA56FA5F490055A2AF75C932D
:100100006B6CF9676DC11BFCE0E40D47FEF520E662
:10011000B500D0ED902E0300943577050080841E45
:10012000080000204E0A000000C80C333333330FA0
:10013000986E12831141EF8D2114893BE65516CF3D
:10014000FEE6DB18D1844B381BF77C1D901DA4BB49
:10015000E424203284725E228100C9F124ECA1E5FE
:100160003D275A73757445746865726E657455449D
:10017000503A3A626567696E5061636B65742863D3
:100180006F6E73742063686172202A686F73742CB9
:100190002075696E7431365F7420706F7274293BFC
:1001A000206973206E6F7420737570706F72746540
:1001B000642120536F7272792100E50911241FBE5A
:1001C000CFEFD8E0DEBFCDBF12E0A0E0B1E0EAE2C1
:1001D000F2E202C005900D92AA35B107D9F724E0EA
:1001E000AAE5B2E001C01D92A535B207E1F710E023
:1001F000CEEDD0E004C02197FE010E94F80ECD3D67
:10020000D107C9F70E94640A0C9413110C940000E2
:10021000FC01538D448D252F30E0842F90E0821B0C
:10022000930B541710F0CF96089501970895FC0191
:10023000918D828D981761F0A28DAE0FBF2FB11DE9
:100240005D968C91928D9F5F9F73928F90E0089541
:100250008FEF9FEF0895FC01918D828D981731F0FB
:10026000828DE80FF11D858D90E008958FEF9FEF4F
:100270000895FC01918D228D892F90E0805C9F4F25
:10028000821B91098F7399270895FC01A48DA80FF3
:10029000B92FB11DA35ABF4F2C91848D90E00196C8
:1002A0008F739927848FA689B7892C93A089B189E8
:1002B0008C91837080648C93938D848D981306C089
:1002C0000288F389E02D80818F7D80830895EF92ED
:1002D000FF920F931F93CF93DF93EC0181E0888F00
:1002E0009B8D8C8D98131AC0E889F989808185FFD0
:1002F00015C09FB7F894EE89FF896083E889F98972
:1003000080818370806480839FBF81E090E0DF9173
:10031000CF911F910F91FF90EF900895F62E0B8DC6
:1003200010E00F5F1F4F0F731127E02E8C8D8E1181
:100330000CC00FB607FCFACFE889F989808185FFE8
:10034000F5CFCE010E944501F1CFEB8DEC0FFD2FD3
:10035000F11DE35AFF4FF0829FB7F8940B8FEA89A3
:10036000FB8980818062CFCFCF93DF93EC01888DB2
:100370008823B9F0AA89BB89E889F9898C9185FD20
:1003800003C0808186FD0DC00FB607FCF7CF8C91AE
:1003900085FFF2CF808185FFEDCFCE010E94450120
:1003A000E9CFDF91CF9108958DE693E00E94390166
:1003B00021E0892B09F420E0822F089580E090E06D
:1003C000892B29F00E94D40181110C94000008951A
:1003D000AF92BF92CF92DF92EF92FF920F931F9353
:1003E000CF93DF936C017B018B01040F151FEB0191
:1003F0005E01AE18BF08C017D10759F06991D60148
:10040000ED91FC910190F081E02DC6010995892BB9
:1004100079F7C501DF91CF911F910F91FF90EF9078
:10042000DF90CF90BF90AF900895FC01448155813B
:10043000608171818DE693E00C94E8013FB7F894F8
:1004400080915F0290916002A0916102B09162027E
:1004500026B5A89B05C02F3F19F00196A11DB11D1F
:100460003FBFBA2FA92F982F8827BC01CD01620F5B
:10047000711D811D911D42E0660F771F881F991F16
:100480004A95D1F7089581E0089587E08CBF95EEF5
:100490009BBF1ABE8CBF86EE8BBF1ABE089590E03C
:1004A00080E0089597E09CBF87EE8BBF2AB79CBF82
:1004B00088EE8BBF8AB7322F282F9CBF85EE8BBF6B
:1004C0008AB79CBF96EE9BBF9AB789279827892742
:1004D000821B930B4817590708F4CA01A901475119
:1004E000584FFB01DB01A80FB91FEA17FB0739F0D2
:1004F0005CBF4BBF6AB761934F5F5F4FF6CF280F6A
:10050000391F47E04CBF57EE5BBF3ABF4CBF38EED8
:100510003BBF2ABF0895CF93DF931F92CDB7DEB7BD
:10052000DC01ED91FC91028CF38DE02D41E050E077
:10053000BE016F5F7F4F09951816190634F4898143
:1005400090E00F90DF91CF9108958FEF9FEFF9CF5B
:10055000FC0197E09CBF85EE8BBF8AB79CBF26EE5F
:100560002BBF6AB79CBF27EE2BBF2AB79CBF98EE64
:100570009BBF3AB71CBE90E19BBF9AB71CBE4FE031
:100580004BBF4AB71CBE5EE05BBF5AB71CBE7DE0E6
:100590007BBF7AB7708B518B428B938B1CBE91E1E2
:1005A0009BBF4AB71CBE92E19BBF9AB7542F492FFD
:1005B000558B448B982F862F232732272327821B86
:1005C000930B08951CBE83E18BBF8AB71CBE94E1D8
:1005D0009BBF9AB7892798278927FB019C012B5E2F
:1005E0003F4FDB01A40FB51FEA17FB0739F06191FC
:1005F0003CBF2BBF6ABF2F5F3F4FF6CF480F591F3D
:100600001CBE83E18BBF5ABF1CBE84E18BBF4ABFB7
:1006100090E080E00895CF93DF931F92CDB7DEB7CF
:100620006983DC01ED91FC910280F381E02D41E0D2
:1006300050E0BE016F5F7F4F09950F90DF91CF9122
:1006400008951CBE1BBE8FEF8ABF1CBE1BBE82E07E
:100650008ABF90E080E00895FB013281238194817C
:1006600085811CBE1BBE61E06ABF1CBE6DE06BBF16
:100670003ABF1CBE3EE03BBF2ABF1CBE2FE02BBFD3
:100680009ABF1CBE90E19BBF8ABF1CBE81E18BBF9D
:100690005ABF1CBE82E18BBF4ABF81E090E0089543
:1006A0000895DC01ED91FC91008CF18DE02D099411
:1006B0001CBE8BE08BBF7ABF1CBE8CE08BBF6ABFB9
:1006C0001CBE1BBE83E08ABF81E00895FC018489C3
:1006D000958908952CE431E0FC0131832083FB01EE
:1006E0004089518962897389FC0142835383648301
:1006F00075830895DC01ED91FC91028CF38DE02D62
:10070000099490E080E00895FB0101900020E9F752
:100710003197AF01461B570BDC01ED91FC91028034
:10072000F381E02D09948F929F92AF92BF92EF9246
:10073000FF920F931F93CF93DF93CDB7DEB7A197AF
:100740000FB6F894DEBF0FBECDBF7C01FA01CB011E
:1007500019A2223008F42AE08E010F5D1F4F822E6D
:10076000912CB12CA12CBF01A50194010E94D60EA1
:10077000F901CA016A300CF5605DD8016E938D01F4
:10078000232B242B252B79F790E080E0109721F084
:10079000BD01C7010E948403A1960FB6F894DEBF85
:1007A0000FBECDBFDF91CF911F910F91FF90EF90C2
:1007B000BF90AF909F908F900895695CDECFCF93EC
:1007C000DF93C2E6D1E0FE016491662339F08DE645
:1007D00093E00E9467012196892BA9F76EE471E0EE
:1007E0008DE693E00E948403989590E080E0DF918D
:1007F000CF910895CF93DF93BC018DE693E00E94E3
:100800008403EC016EE471E08DE693E00E948403C2
:100810008C0F9D1FDF91CF910895AF92BF92CF9221
:10082000DF92EF92FF920F931F93CF93DF938C0190
:100830007B0180E091E0D801FC011D923197E9F73E
:10084000842F8064D8014C91482B4C93FB01248168
:1008500035812F5F3F4F11968C911197822B119606
:100860008C9311976081718112968C911297826896
:1008700012968C931297FB0101900020E9F73197B3
:10088000E61BF70B13968C911397E82B1396EC93BA
:100890006801F4E0CF0ED11CEB0109900020E9F7CC
:1008A0002197C61BD70BAE01C6010E94FC10CC0DD0
:1008B000DD1DD12CC12CD70114968D919C911597DB
:1008C000C816D90608F07BC0A60183E0440F551F67
:1008D0008A95E1F712968D919C91DC01A40FB51FCA
:1008E0009C9112968C9190FB87F9982F8881892B87
:1008F000DE018D93F70182819381840F951FFC01A6
:1009000020813181232BE9F022813381213031058F
:10091000E9F02230310571F1232B99F4898184604B
:100920008983DE011296F70182819381FA01E80F33
:10093000F91F349684E001900D928A95E1F7DE016B
:100940001696FFEFCF1ADF0AED01B5CF89818860D7
:100950008983DE011296F70182819381FA01E80F03
:10096000F91F349688E001900D928A95E1F7DE0137
:100970001A96E7CF84819581DC010D900020E9F77C
:100980001197A81BB90B8981A82BA9832296F7017F
:1009900082819381FA01E80FF91F64817581DB017F
:1009A0000D900020E9F711975D01A61AB70AA5017D
:1009B000CE010E94FC10DE01AA0DBB1DC2CFCE01EC
:1009C000801B910BDF91CF911F910F91FF90EF90C2
:1009D000DF90CF90BF90AF900895AC01990F660B58
:1009E000770B2AE08DE693E00C9493038F929F920D
:1009F000AF92BF92CF92DF92EF92FF920F931F932D
:100A0000CF93DF937C01EB016C0182E0C80ED11C17
:100A10004701E5E08E0E911C10E000E0F6014191E7
:100A20006F0150E070E060E02AE0CE010E94930385
:100A30005C01E881F9810190F081E02D6EE2CE0148
:100A400009958A0D9B1D080F191FC814D90431F789
:100A5000F701458150E070E060E02AE0CE010E949D
:100A60009303800F911FDF91CF911F910F91FF9002
:100A7000EF90DF90CF90BF90AF909F908F900895B0
:100A80003F924F925F926F927F928F929F92AF921E
:100A9000BF92CF92DF92EF92FF920F931F93CF936B
:100AA000DF9300D000D000D0CDB7DEB78C017B0142
:100AB00080916B0390916C03DC01ED91FC910288B5
:100AC000F389E02DA0916903B0916A032CE431E031
:100AD0003A83298312964D915D916D917C91159782
:100AE0004B835C836D837E8340EA5FE0BE016F5F72
:100AF0007F4F099580916B0390916C036091670320
:100B000070916803DC01ED91FC910280F381E02D8E
:100B1000A801099580916B0390916C03DC01ED9124
:100B2000FC910688F789E02D099580916B039091DF
:100B30006C03DC01ED91FC91008CF18DE02D0995A9
:100B4000892B99F380916B0390916C0360916703FB
:100B500070916803DC01ED91FC91028CF38DE02D26
:100B600040E051E00995A0906703B0906803F5015B
:100B70003080818190E00097F9F4232D2F7381E07C
:100B800090E0213009F080E026960FB6F894DEBFA1
:100B90000FBECDBFDF91CF911F910F91FF90EF90CE
:100BA000DF90CF90BF90AF909F908F907F906F908D
:100BB0005F904F903F9008950197D70115969C93B1
:100BC0008E9314976501B4E0CB0ED11C038110E025
:100BD00061E070E0C8010E94FE0ED7018D939C93E6
:100BE000892BB1F461E571E08DE693E00E94840306
:100BF0008DEA90E00E94ED0468E671E08DE693E0F6
:100C00000E9484036FE471E08DE693E00E94840308
:100C1000A801B601F701808191810E94FC100C0DA2
:100C20001D1D68E070E0D70114968D919C910E9483
:100C3000FE0EF70193838283892BB1F461E571E0A5
:100C40008DE693E00E94840381EC90E00E94ED0425
:100C500068E671E08DE693E00E9484036FE471E042
:100C60008DE693E00E948403F801912C812CD7013A
:100C700014968D919C9115978816990608F071C06D
:100C8000240183E0440C551C8A95E1F71296CD901F
:100C9000DC90C40CD51C9081991F9927991F292F8E
:100CA00030E0D6012D933C93DF018D918D018F773C
:100CB000282F30E0D60113963C932E931297992358
:100CC00029F08130B9F038F08230C9F0FFEF8F1A87
:100CD0009F0AF801CCCF3F01B2E06B0E711C01817D
:100CE00010E0A801B301C60104960E94FC10060D95
:100CF000171DECCF3F0182E0680E711CF0CF3F0161
:100D0000A2E06A0E711C018110E061E070E0C80190
:100D10000E94FE0EF60195838483892BB1F461E570
:100D200071E08DE693E00E94840386EE90E00E94DD
:100D3000ED0468E671E08DE693E00E9484036FE4C1
:100D400071E08DE693E00E948403D70112968D91A5
:100D50009C91480E591EA801B301F201848195812E
:100D6000C4CFEA19FB091E161F060CF406CF80E05B
:100D700090E00ACFEF92FF920F931F93CF93DF93F0
:100D800000D000D000D0CDB7DEB77B019A83898335
:100D90007C836B8381E090E09E838D8346E050E00E
:100DA000BE016F5F7F4F80916703909168030E943F
:100DB0000D041816190684F010E000E0C80126960C
:100DC0000FB6F894DEBF0FBECDBFDF91CF911F915C
:100DD0000F91FF90EF900895BE016F5F7F4F0E94CB
:100DE00040058C01019741F74D815E8183E0440FFE
:100DF000551F8A95E1F76B817C81C7010E94FC1029
:100E000089819A810E94B60F8B819C810E94B60FC6
:100E1000D5CFCF93DF93EC0188819981009711F0B2
:100E20000E94B60F198218821D821C821B821A82B0
:100E3000DF91CF910895FC0180819181009711F09D
:100E40000C94B60F08950F931F93CF93DF93EC018B
:100E500088819981009759F02A813B8126173707AD
:100E600030F081E0DF91CF911F910F9108958B01B8
:100E70006F5F7F4F0E943F10009759F099838883DE
:100E80001B830A832C813D81232B59F7FC0110829F
:100E9000E8CF80E0E7CFEF92FF920F931F93CF93BD
:100EA000DF936115710541F480E0DF91CF911F91CF
:100EB0000F91FF90EF90089541155105B1F07B011E
:100EC000EC010C811D81040F151FB8010E9423073E
:100ED000882351F3288139818C819D81B701820F4C
:100EE000931F0E940C111D830C8381E0DECFCF93F2
:100EF000DF93EC01FB0101900020E9F73197AF018E
:100F0000461B570B0E944B07811103C0CE010E9464
:100F10000907CE01DF91CF910895CF93DF93EC01C4
:100F2000FB0144815581608171810E944B078111D1
:100F300003C0CE010E940907CE01DF91CF91089531
:100F4000EF92FF920F931F93CF93DF93EC017B01FE
:100F50008A01BA010E94230781110BC0CE010E94B1
:100F60000907CE01DF91CF911F910F91FF90EF9074
:100F700008951D830C83B701888199810E940C110B
:100F8000F0CFEF92FF920F931F93CF93DF93CDB7E4
:100F9000DEB762970FB6F894DEBF0FBECDBF8C01EF
:100FA000CB01F80111821082138212821582148201
:100FB0004AE09E012F5F3F4F7901B9010E94330C37
:100FC000F70101900020E9F73197AF014E195F0951
:100FD000B701C8010E94A00762960FB6F894DEBF61
:100FE0000FBECDBFDF91CF911F910F91FF90EF907A
:100FF0000895FC01118210821382128215821482DC
:101000006115710551F0FB0101900020E9F731975E
:10101000AF01461B570B0C94A0070895AF92BF92E7
:10102000CF92DF92EF92FF920F931F93CF93DF93B4
:10103000CDB7DEB7A7970FB6F894DEBF0FBECDBF12
:101040006C01DC016D917C91CE0182960E94F907C2
:1010500068E971E0CE0101960E94F907BE016E5D5C
:101060007F4FCE0101960E948D070E941502CE018E
:1010700001960E941B07CE0182960E941B07F12C4D
:10108000E12CB12CA12CF60184819581A816B9061A
:101090000CF0E4C0FFEFAF1ABF0AB501CE01829693
:1010A0000E94C1076FE971E0CE0101960E94F90725
:1010B000BE016E5D7F4FCE0101960E948D0767EAEB
:1010C00071E00E9477070E941502CE0101960E94EE
:1010D0001B07CE0182960E941B07D6011296ED9146
:1010E000FC91EE0DFF1D8081918168E871E0892BF4
:1010F00011F064E871E0CE0182960E94F90769EA76
:1011000071E0CE0101960E94F907BE016E5D7F4F2E
:10111000CE0101960E948D070E941502CE01019614
:101120000E941B07CE0182960E941B07D6011296D1
:10113000ED91FC91EE0DFF1D828193816BE871E0D2
:101140008330910538F4880F991FFC01E85FFE4F4A
:1011500060817181CE0182960E94F90766EB71E091
:10116000CE0101960E94F907BE016E5D7F4FCE0150
:1011700001960E948D070E941502CE0101960E94E1
:101180001B07CE0182960E941B07D6011296ED9195
:10119000FC91EE0DFF1D82819381009729F58081DE
:1011A0009181892BE9F064817581CE0182960E943C
:1011B000C1076EEB71E0CE0101960E94F907BE01F6
:1011C0006E5D7F4FCE0101960E948D070E94150231
:1011D000CE0101960E941B07CE0182960E941B073A
:1011E000B8E0EB0EF11C4FCF8130910551F58081B5
:1011F0009181892BA9F364817581868197811BA2D6
:101200001AA21DA21CA21FA21EA28E010F5F1F4FB9
:1012100022E044E00E94150C009771F0FC0101905F
:101220000020E9F73197AF01481B590BBC01CE01F3
:1012300082960E94A007BDCFCE0182960E94090728
:10124000B8CF029769F680819181892B49F2648138
:101250007581CE0182960E94F907ABCF80E591E0BF
:101260000E94FA03A7960FB6F894DEBF0FBECDBF5B
:10127000DF91CF911F910F91FF90EF90DF90CF9072
:10128000BF90AF9008951F920F920FB60F92112446
:101290002F933F934F935F936F937F938F939F937E
:1012A000AF93BF93EF93FF938DE693E00E944501C8
:1012B000FF91EF91BF91AF919F918F917F916F912E
:1012C0005F914F913F912F910F900FBE0F901F9004
:1012D00018951F920F920FB60F9211242F938F9390
:1012E0009F93EF93FF93E0917D03F0917E038081C4
:1012F000E0918303F091840382FD1BC09081809173
:1013000086038F5F8F7320918703821741F0E091EE
:101310008603F0E0E359FC4F958F80938603FF919D
:10132000EF919F918F912F910F900FBE0F901F9073
:1013300018958081F4CF1F920F920FB60F9211244F
:101340002F933F938F939F93AF93BF9380915B02B3
:1013500090915C02A0915D02B0915E0230915A02C0
:1013600023E0230F2D3758F50196A11DB11D2093C1
:101370005A0280935B0290935C02A0935D02B0934B
:101380005E0280915F0290916002A0916102B09133
:1013900062020196A11DB11D80935F0290936002CD
:1013A000A0936102B0936202BF91AF919F918F9120
:1013B0003F912F910F900FBE0F901F90189526E828
:1013C000230F0296A11DB11DD2CFEDE6F3E01382EB
:1013D000128248EE53E060E070E0448355836683F8
:1013E000778382E191E09183808385EC90E095871B
:1013F000848784EC90E09787868780EC90E0918BDF
:10140000808B81EC90E0938B828B82EC90E0958BCB
:10141000848B86EC90E0978B868B118E128E138EC8
:10142000148EEAE0F4E08CE491E0918380831282F0
:10143000138214821582E8E1F4E0918380831282A2
:10144000138214821582E0E1F4E09183808312829A
:10145000138214821582EEE1F4E09183808312827C
:10146000138214821582E4E2F4E091838083128275
:10147000138214821582EBE4F4E09183808312825C
:10148000138214821582E0E3F4E013821282448313
:1014900055836683778324E231E031832083978705
:1014A0008687108A118A128A138A24E0208FEAE242
:1014B000F4E09183808380EC828388EA838388E3ED
:1014C000848387E685830895CF93DF93CDB7DEB716
:1014D00064970FB6F894DEBF0FBECDBF789484B585
:1014E000826084BD84B5816084BD85B5826085BD20
:1014F00085B5816085BD80916E00816080936E00AE
:10150000109281008091810082608093810080919F
:101510008100816080938100809180008160809350
:1015200080008091B10084608093B1008091B00010
:1015300081608093B00080917A00846080937A000B
:1015400080917A00826080937A0080917A00816035
:1015500080937A0080917A00806880937A0010925C
:10156000C10088E0809312048093130480931404D4
:10157000809315042CE431E03A8329831B821C827A
:101580001D821E821CBE9AE09BBF9AB71CBE29E03A
:101590002BBF2AB71CBE8BBF8AB71CBE37E03BBF30
:1015A0003AB73B838C832D839E836DE673E08E0177
:1015B0000F5F1F4FC8010E94F6046EE471E08DE6D4
:1015C00093E00E9484036AE07AE180E394E00E9461
:1015D000580383E692E0909368038093670380E367
:1015E00094E090936C0380936B038AE294E0909371
:1015F0006A0380936903EE24E394F12C2AE0222EFF
:1016000022E0322E32E3C32E32E0D32E80916503E6
:1016100090916603892BA9F58091000190910101B9
:101620008431910521F4F0926603E0926503FA8219
:10163000E9821C821B829E838D8386EC91E09A87CF
:1016400089871C870B87FE86ED8642E050E0BE014D
:10165000675F7F4F80916703909168030E940D043C
:10166000181619060CF447C085ED91E00E94FA03A4
:101670008091000190910101019690930101809366
:10168000000180916503909166038130910509F016
:1016900057C0209163033091640323313105A1F5D4
:1016A00063E170E0CE0109960E94C10762EE71E02D
:1016B000CE010F960E94F907BE01675F7F4FCE01F2
:1016C0000F960E948D076DEE71E00E9477070E94D1
:1016D00015026EE471E08DE693E00E948403CE0172
:1016E0000F960E941B07CE0109960E941B0781E0FE
:1016F00090E00E941311BE01675F7F4F0E9440057A
:10170000019709F0B1CFB4CF1A8219821C821B82D3
:101710003A8629869E878D871C870B87B8018AE0C9
:1017200092E00E94BA06892B09F063C083E192E03F
:101730000E94FA0382E090E0909366038093650331
:101740008091650390916603029709F58091630388
:1017500090916403439709F4A3CF1A8219821C82E3
:101760001B82DA86C986FE86ED861C870B87B80148
:1017700082E392E00E94BA06892B09F048C083E117
:1017800092E00E94FA03F0926603E09265030E94E1
:101790001E022B013C0188EB882E8BE0982EA12C99
:1017A000B12C0E941E026419750986099709683ECA
:1017B000734081059105A8F391E0891A9108A10869
:1017C000B10828EE420E23E0521E611C711C8114E8
:1017D0009104A104B10429F780E090E0892B09F479
:1017E00015CF0E94D401882309F410CF0E94000075
:1017F0000DCFCE0109960E940E088091630390914F
:1018000064030196909364038093630393CFCE01A6
:1018100009960E940E0880916303909164030196DB
:101820009093640380936303AECFEF920F931F9363
:10183000CF93DF93E80134E047FD34E1042E000C40
:10184000550B57FF03C0519541955109E32E022FC7
:10185000242FAE010E94580CCE01DF91CF911F9131
:101860000F91EF900895BB274A3031F4992322F469
:10187000BDE2909581959F4F0C943F0CBB27FB01D7
:101880005527AA27880F991FAA1FA41710F0A41B79
:1018900083955051B9F7A05DAA3308F0A95DA193D3
:1018A000009779F7B111B1931192CB010C948F0E7F
:1018B000A9E0B0E0EEE5FCE00C94A50E6A01F22E82
:1018C000B02E102FFBE3AF2EA01608F41BE31F5F12
:1018D000012F27E0AE014F5F5F4F0E94B70DBC01A3
:1018E0008981982F9970913009F43FC09BE2E1FC07
:1018F00004C09E2D9170E0FC3AC05E2D5071E82F1F
:10190000E87083FF46C084E0911101C083E0EF2DB1
:10191000E81B8F1508F0E0E0D6018E2F20E255235A
:1019200051F1992329F0D6019C93C60101966C01CF
:1019300096012D5F3F4FE2FE24C08EE4D6018C93CA
:1019400091E411969C93119712968C93D9018E2F46
:1019500090E281111BC0E20FF32FF11D10828EEF78
:101960009FEF2996ECE00C94C10E9DE2C6CF90E269
:10197000C4CF2D9381508111FCCFCE0ED11CE0E05D
:10198000D0CF8EE6D6018C9391E6DBCF9D9381502C
:10199000E0CF482F447082FF3DC084E0911101C028
:1019A00083E08F1510F4EF2DE81BD6018E2F20E277
:1019B000552309F1992329F0D6019C93C60101967C
:1019C0006C0196012D5F3F4FE2FE1BC089E4D601FA
:1019D0008C938EE411968C93119786E412968C93D7
:1019E000D9018E2F90E2882309F4B5CF9D938150C1
:1019F000FACF2D9381508111FCCFCE0ED11CE0E0A7
:101A0000D9CF89E6D6018C938EE611968C931197E7
:101A100086E6E4CF9B0177FF02C030E020E0A1E042
:101A2000B0E0911102C0B0E0A0E0F9013196AE0F34
:101A3000BF1F8B2C912CBB2009F461C05401EFEF28
:101A4000AE1ABE0AAA0DBB1DFA161B0619F014F039
:101A50004F2D4A1B511188C0E3FC59C07601A42FB9
:101A6000B0E2A1114FC0C40ED11C992309F45BC090
:101A700040E0D6011196F60190836D01552309F4DB
:101A800048C0012F060F9A81582F507184FF03C060
:101A9000913309F4015010160CF047C0093008F0DA
:101AA00008E0EEE2FE2E5B01A01AB10885019194D8
:101AB000819491082F3F320729F4D601FC92F60158
:101AC00031966F016217730794F1021713077CF5C3
:101AD000DB01A21BB30BAA24A394B12CAC0EBD1E38
:101AE000AA0DBB1D11968C9121503109D60111967A
:101AF00028153905F4F0F60180836D01DBCFB12C98
:101B0000A12CA0CFF701B1937F01A150AACF9111D1
:101B1000B0CFD601942F50E302C05D939150911144
:101B2000FCCFC40ED11C40E0ACCF01E0BACF80E3C3
:101B3000DBCF6217730731F4963388F4953311F4D1
:101B4000552369F0F6018083FD01842F90E2811115
:101B500008C0A40FB11D1C9290E080E002CF81E389
:101B6000F1CF91938150F3CF911183CF8ACF283059
:101B700008F027E03327DA01990F311D87FD9160C6
:101B800000966105710539F432602E5F3D9330E3B4
:101B90002A95E1F708959F3F30F08038710561057F
:101BA00009F03C5F3C5F3D93913008F08068911DE7
:101BB000DF93CF931F930F93FF92EF92192F987F8C
:101BC0009695E92F96959695E90FFF27EE53FF4FCF
:101BD00099273327EE24FF24A701E70105900894F5
:101BE000079428F4360FE71EF81E491F511D660F93
:101BF000771F881F991F0694A1F70590079428F472
:101C0000E70EF81E491F561FC11D770F881F991F29
:101C1000661F0694A1F70590079428F4F80E491F53
:101C2000561FC71FD11D880F991F661F771F069467
:101C3000A1F70590079420F4490F561FC71FD81F1E
:101C4000990F661F771F881F0694A9F78491109536
:101C5000177041F0D695C79557954795F794E79437
:101C60001A95C1F7E8E6F0E0689415901591359162
:101C70006591959105907FE27395E118F10A430B08
:101C8000560BC90BD009C0F7E10CF11E431F561FBC
:101C9000C91FD01D7EF4703311F48A95E6CFE89405
:101CA000015030F0080F0AF40027021708F4202F23
:101CB0002395022F7A3328F079E37D932A95E9F76B
:101CC00010C07D932A9589F6069497956795379568
:101CD00017951794E118F10A430B560BC90BD0095D
:101CE00098F023957E9173957A3308F070E37C9396
:101CF0002013B8F77E9170617D9330F0839571E386
:101D00007D9370E32A95E1F71124EF90FF900F91F6
:101D10001F91CF91DF91992787FD90950895DC0160
:101D2000FC01672F71917723E1F7329704C07C9112
:101D30006D9370836291AE17BF07C8F308952F9219
:101D40003F924F925F926F927F928F929F92AF924B
:101D5000BF92CF92DF92EF92FF920F931F93CF9398
:101D6000DF93CDB7DEB7CA1BDB0B0FB6F894DEBF2F
:101D70000FBECDBF09942A88398848885F846E8455
:101D80007D848C849B84AA84B984C884DF80EE809F
:101D9000FD800C811B81AA81B981CE0FD11D0FB6A8
:101DA000F894DEBF0FBECDBFED010895A1E21A2E5B
:101DB000AA1BBB1BFD010DC0AA1FBB1FEE1FFF1FEF
:101DC000A217B307E407F50720F0A21BB30BE40B3F
:101DD000F50B661F771F881F991F1A9469F7609586
:101DE0007095809590959B01AC01BD01CF01089540
:101DF000EE0FFF1F0590F491E02D09940F931F93B0
:101E0000CF93DF93869F8001879F100D969F100DC3
:101E10001124C8010E941A0FEC01009729F0A801B3
:101E200070E060E00E940511CE01DF91CF911F911B
:101E30000F9108950F931F93CF93DF9382309105F5
:101E400010F482E090E0E0915304F091540430E00B
:101E500020E0B0E0A0E0309799F42115310509F4B5
:101E60004AC0281B390B24303105D8F58A819B8163
:101E70006115710589F1FB0193838283FE0111C015
:101E8000408151810281138148175907E0F04817BA
:101E9000590799F4109761F012960C9312971396C4
:101EA0001C933296CF01DF91CF911F910F9108952E
:101EB0000093530410935404F4CF2115310551F0CD
:101EC0004217530738F0A901DB019A01BD01DF0178
:101ED000F801C1CFEF01F9CF9093540480935304DC
:101EE000CDCFFE01E20FF31F819391932250310970
:101EF00039832883D7CF2091510430915204232B6A
:101F000041F4209104013091050130935204209353
:101F1000510420910201309103012115310541F452
:101F20002DB73EB74091060150910701241B350B98
:101F3000E0915104F0915204E217F307A0F42E1B34
:101F40003F0B2817390778F0AC014E5F5F4F24171D
:101F5000350748F04E0F5F1F5093520440935104D1
:101F6000819391939FCFF0E0E0E09CCFCF93DF93FC
:101F70000097E9F0FC01329713821282A09153047A
:101F8000B0915404ED0130E020E01097A1F42081DD
:101F90003181820F931F20915104309152042817F0
:101FA000390709F061C0F0935204E0935104DF91C6
:101FB000CF910895EA01CE17DF07E8F54A815B81EA
:101FC0009E0141155105B1F7E901FB83EA8349916F
:101FD0005991C40FD51FEC17FD0761F480819181E1
:101FE0000296840F951FE9019983888382819381EA
:101FF0009B838A83F0E0E0E012968D919C91139789
:102000000097B9F52D913C911197CD010296820F61
:10201000931F20915104309152042817390739F643
:10202000309751F51092540410925304B093520417
:10203000A0935104BCCFD383C28340815181840FCC
:10204000951FC817D90761F44E5F5F4F888199814A
:10205000480F591F518340838A819B8193838283D8
:102060002115310509F0B0CFF0935404E0935304E7
:102070009ECFFD01DC01C0CF13821282D7CFB0E02A
:10208000A0E0E5E4F0E10C94A10E8C01009751F47E
:10209000CB010E941A0F8C01C801CDB7DEB7E0E179
:1020A0000C94BD0EFC01E60FF71F9C012250310974
:1020B000E217F30708F49DC0D901CD91DC91119787
:1020C000C617D70798F0C530D10530F3CE01049775
:1020D0008617970708F3C61BD70B2297C193D19396
:1020E0006D937C93CF010E94B60FD6CF5B01AC1AE3
:1020F000BD0A4C018C0E9D1EA0915304B091540456
:10210000512C412CF12CE12C109731F58091510488
:10211000909152048815990509F05CC0461657063F
:1021200008F058C08091020190910301009741F49A
:102130008DB79EB74091060150910701841B950B06
:10214000E817F90708F055C0F0935204E0935104E2
:10215000F90171836083A0CF8D919C9111971296A4
:102160006C90129713967C901397A815B90559F5A2
:102170006C0142E0C40ED11CCA14DB0420F1AC0196
:102180004A195B09DA011296159780F06282738210
:1021900051834083D9016D937C93E114F10471F074
:1021A000D7011396FC93EE93129776CF22968C0F5D
:1021B0009D1FF90191838083F301EFCFF0935404C5
:1021C000E093530469CF4816590608F42C017D01A9
:1021D000D3019ACFCB010E941A0F7C01009749F0DE
:1021E000AE01B8010E94FC10C8010E94B60F870121
:1021F00053CF10E000E050CFFB01DC0102C00190A2
:102200000D9241505040D8F70895DC0101C06D9304
:1022100041505040E0F70895FB01DC0101900D9220
:0A2220000020E1F70895F894FFCFC5
:10222A0002000000550480003F0246024F020000EF
:10223A0000006701E8010801B401390117012B0107
:10224A00000000000B03E2028103450251038B02E6
:10225A004F02580350032C03DF032103A802520242
:10226A007A036A036603430200000000F6040D0ABB
:10227A00004D656D6F727920616C6F636174696F6F
:10228A006E206572726F7200443A5C505349525C18
:10229A0070726F6A5C7372635C70726F746F636F73
:1022AA006C2E6300594553004E4F00556E6B6E6F8E
:1022BA00776E2054797065004E616D653A20002072
:1022CA004669656C6420003A0020497320416374B2
:1022DA0075616C3A200020547970653A20002044D8
:1022EA006174613A2000636865636B5F69665F7059
:1022FA0072696D650054535F4F5554204572726F71
:10230A007200436F6C6C6563746564200020747599
:10231A00706C65732C20636C6F73696E67207468C8
:10232A00652070726F636573730069735F70726999
:10233A006D650054535F494E50204572726F722C7E
:10234A002063616E27742066696E64207475706CF0
:10235A00650069735F6E6F745F7072696D650054B2
:10236A00535F494E540054535F464C4F41540054F6
:0A237A00535F535452494E470000D0
:00000001FF
