:100000000C947F000C94A7000C94A7000C94A700FC
:100010000C94A7000C94A7000C94A7000C94A700C4
:100020000C94A7000C94A7000C94A7000C94A700B4
:100030000C94A7000C94A7000C94A7000C94A700A4
:100040000C9454040C94A7000C9422040C94FC030C
:100050000C94A7000C94A7000C94A7000C94A70084
:100060000C94A7000C94A7005A73757445746865C6
:10007000726E65745544503A3A626567696E5061B4
:10008000636B657428636F6E73742063686172209C
:100090002A686F73742C2075696E7431365F742012
:1000A000706F7274293B206973206E6F74207375B2
:1000B00070706F727465642120536F7272792100C1
:1000C00000000000250028002B0000000000240094
:1000D00027002A00040404040404040402020202A7
:1000E00002020303030303030102040810204080FB
:1000F0000102040810200102040810209E041124AB
:100100001FBECFEFD8E0DEBFCDBF11E0A0E0B1E071
:10011000EAE8F2E102C005900D92A43BB107D9F7DD
:1001200023E0A4EBB1E001C01D92AD3AB207E1F7C4
:1001300010E0CFE7D0E004C02197FE010E94EC0759
:10014000CE37D107C9F70E941D050C9443090C94C2
:100150000000FC01538D448D252F30E0842F90E06A
:10016000821B930B541710F0CF96089501970895B2
:10017000FC01918D828D981761F0A28DAE0FBF2F7B
:10018000B11D5D968C91928D9F5F9F73928F90E0D1
:1001900008958FEF9FEF0895FC01918D828D981740
:1001A00031F0828DE80FF11D858D90E008958FEF7D
:1001B0009FEF0895FC01918D228D892F90E0805C46
:1001C0009F4F821B91098F7399270895FC01A48D7D
:1001D000A80FB92FB11DA35ABF4F2C91848D90E069
:1001E00001968F739927848FA689B7892C93A0894C
:1001F000B1898C91837080648C93938D848D9813D6
:1002000006C00288F389E02D80818F7D8083089568
:10021000EF92FF920F931F93CF93DF93EC0181E056
:10022000888F9B8D8C8D98131AC0E889F9898081FD
:1002300085FF15C09FB7F894EE89FF896083E88930
:10024000F98980818370806480839FBF81E090E022
:10025000DF91CF911F910F91FF90EF900895F62EAF
:100260000B8D10E00F5F1F4F0F731127E02E8C8D49
:100270008E110CC00FB607FCFACFE889F98980818E
:1002800085FFF5CFCE010E94E600F1CFEB8DEC0F9C
:10029000FD2FF11DE35AFF4FF0829FB7F8940B8FAB
:1002A000EA89FB8980818062CFCFCF93DF93EC0115
:1002B000888D8823B9F0AA89BB89E889F9898C914E
:1002C00085FD03C0808186FD0DC00FB607FCF7CF0A
:1002D0008C9185FFF2CF808185FFEDCFCE010E940A
:1002E000E600E9CFDF91CF91089585EC92E00E947E
:1002F000DA0021E0892B09F420E0822F089580E0C4
:1003000090E0892B29F00E94750181110C94000066
:100310000895AF92BF92CF92DF92EF92FF920F9328
:100320001F93CF93DF936C017B018B01040F151F8B
:10033000EB015E01AE18BF08C017D10759F06991F3
:10034000D601ED91FC910190F081E02DC601099557
:10035000892B79F7C501DF91CF911F910F91FF9004
:10036000EF90DF90CF90BF90AF900895CF93DF9341
:1003700090E0FC01E851FF4F24918C529F4FFC010B
:1003800084918823C9F090E0880F991FFC01E653FF
:10039000FF4FA591B491FC01E054FF4FC591D4915A
:1003A00061110DC09FB7F8948C91209582238C9396
:1003B0008881282328839FBFDF91CF9108956230E1
:1003C00051F49FB7F8943C91822F809583238C93AE
:1003D000E8812E2BEFCF8FB7F894EC912E2B2C9336
:1003E0008FBFEACF81E0089587E08CBF95EE9BBF79
:1003F0001ABE8CBF86EE8BBF1ABE089590E080E0D7
:10040000089597E09CBF87EE8BBF2AB79CBF88EE0C
:100410008BBF8AB7322F282F9CBF85EE8BBF8AB740
:100420009CBF96EE9BBF9AB7892798278927821B86
:10043000930B4817590708F4CA01A9014751584FAF
:10044000FB01DB01A80FB91FEA17FB0739F05CBFFE
:100450004BBF6AB761934F5F5F4FF6CF280F391FCD
:1004600047E04CBF57EE5BBF3ABF4CBF38EE3BBFD7
:100470002ABF0895CF93DF931F92CDB7DEB7DC017B
:10048000ED91FC91028CF38DE02D41E050E0BE0136
:100490006F5F7F4F09951816190634F4898190E033
:1004A0000F90DF91CF9108958FEF9FEFF9CFFC016F
:1004B00097E09CBF85EE8BBF8AB79CBF26EE2BBF13
:1004C0006AB79CBF27EE2BBF2AB79CBF98EE9BBF95
:1004D0003AB71CBE90E19BBF9AB71CBE4FE04BBF22
:1004E0004AB71CBE5EE05BBF5AB71CBE7DE07BBF57
:1004F0007AB7708B518B428B938B1CBE91E19BBF63
:100500004AB71CBE92E19BBF9AB7542F492F558B17
:10051000448B982F862F232732272327821B930B68
:1005200008951CBE83E18BBF8AB71CBE94E19BBFBC
:100530009AB7892798278927FB019C012B5E3F4F9B
:10054000DB01A40FB51FEA17FB0739F061913CBF2F
:100550002BBF6ABF2F5F3F4FF6CF480F591F1CBEFE
:1005600083E18BBF5ABF1CBE84E18BBF4ABF90E0C2
:1005700080E00895CF93DF931F92CDB7DEB76983F4
:10058000DC01ED91FC910280F381E02D41E050E02F
:10059000BE016F5F7F4F09950F90DF91CF91089556
:1005A0001CBE1BBE8FEF8ABF1CBE1BBE82E08ABF73
:1005B00090E080E00895FB01328123819481858160
:1005C0001CBE1BBE61E06ABF1CBE6DE06BBF3ABFC4
:1005D0001CBE3EE03BBF2ABF1CBE2FE02BBF9ABF14
:1005E0001CBE90E19BBF8ABF1CBE81E18BBF5ABF7E
:1005F0001CBE82E18BBF4ABF81E090E00895089560
:10060000DC01ED91FC91008CF18DE02D09941CBE74
:100610008BE08BBF7ABF1CBE8CE08BBF6ABF1CBE59
:100620001BBE83E08ABF81E00895FC01848995891F
:10063000089524E431E0FC0131832083FB014089EB
:10064000518962897389FC01428353836483758372
:100650000895DC01ED91FC91028CF38DE02D09945D
:1006600090E080E00895FB0101900020E9F73197C8
:10067000AF01461B570BDC01ED91FC910280F38129
:10068000E02D09948F929F92AF92BF92EF92FF92CA
:100690000F931F93CF93DF93CDB7DEB7A1970FB61C
:1006A000F894DEBF0FBECDBF7C01FA01CB0119A2C9
:1006B000223008F42AE08E010F5D1F4F822E912C0C
:1006C000B12CA12CBF01A50194010E94CA07F90118
:1006D000CA016A300CF5605DD8016E938D01232B41
:1006E000242B252B79F790E080E0109721F0BD01B5
:1006F000C7010E943303A1960FB6F894DEBF0FBE68
:10070000CDBFDF91CF911F910F91FF90EF90BF90E0
:10071000AF909F908F900895695CDECFAC01990FE8
:10072000660B770B2AE085EC92E00C9442038F92E3
:100730009F92AF92BF92CF92DF92EF92FF920F9370
:100740001F93CF93DF937C01EB016C0182E0C80E15
:10075000D11C4701E5E08E0E911C10E000E0F6018F
:1007600041916F0150E070E060E02AE0CE010E940C
:1007700042035C01E881F9810190F081E02D6EE295
:10078000CE0109958A0D9B1D080F191FC814D904A5
:1007900031F7F701458150E070E060E02AE0CE01DA
:1007A0000E944203800F911FDF91CF911F910F9103
:1007B000FF90EF90DF90CF90BF90AF909F908F9081
:1007C0000895CF93DF93C8E6D0E0FE0164916623DD
:1007D00039F085EC92E00E9408012196892BA9F757
:1007E00066E471E085EC92E00E943303989590E016
:1007F00080E0DF91CF9108951F920F920FB60F9274
:1008000011242F933F934F935F936F937F938F9315
:100810009F93AF93BF93EF93FF9385EC92E00E9479
:10082000E600FF91EF91BF91AF919F918F917F91E2
:100830006F915F914F913F912F910F900FBE0F904D
:100840001F9018951F920F920FB60F9211242F939D
:100850008F939F93EF93FF93E091D502F091D6028F
:100860008081E091DB02F091DC0282FD1BC090816F
:100870008091DE028F5F8F732091DF02821741F03B
:10088000E091DE02F0E0EB53FD4F958F8093DE02A6
:10089000FF91EF919F918F912F910F900FBE0F902D
:1008A0001F9018958081F4CF1F920F920FB60F9270
:1008B00011242F933F938F939F93AF93BF93809176
:1008C000B9019091BA01A091BB01B091BC013091E6
:1008D000B80123E0230F2D3758F50196A11DB11D56
:1008E0002093B8018093B9019093BA01A093BB0102
:1008F000B093BC018091B4019091B501A091B60173
:10090000B091B7010196A11DB11D8093B4019093E0
:10091000B501A093B601B093B701BF91AF919F917C
:100920008F913F912F910F900FBE0F901F901895B0
:1009300026E8230F0296A11DB11DD2CFE5ECF2E00F
:100940001382128248EE53E060E070E044835583E6
:10095000668377838AE091E09183808385EC90E0E1
:100960009587848784EC90E09787868780EC90E079
:10097000918B808B81EC90E0938B828B82EC90E06A
:10098000958B848B86EC90E0978B868B118E128EE4
:10099000138E148EE2E6F3E084E491E09183808389
:1009A0001282138214821582E0E7F3E09183808340
:1009B0001282138214821582E8E6F3E09183808329
:1009C0001282138214821582E6E7F3E0918380831A
:1009D0001282138214821582ECE7F3E09183808304
:1009E0001282138214821582E3EAF3E091838083FA
:1009F0001282138214821582E8E8F3E013821282D5
:100A000044835583668377832CE131E031832083EF
:100A100097878687108A118A128A138A24E0208F8A
:100A2000E2E8F3E09183808380EC828388EA838329
:100A300088E3848387E685830895CF93DF93CDB7DA
:100A4000DEB72F970FB6F894DEBF0FBECDBF7894F8
:100A500084B5826084BD84B5816084BD85B58260C3
:100A600085BD85B5816085BD80916E008160809374
:100A70006E001092810080918100826080938100DD
:100A800080918100816080938100809180008160ED
:100A9000809380008091B10084608093B100809148
:100AA000B00081608093B00080917A008460809370
:100AB0007A0080917A00826080937A0080917A0037
:100AC000816080937A0080917A00806880937A00B8
:100AD0001092C10088E080936A0380936B03809337
:100AE0006C0380936D0324E431E03A8329831B82F5
:100AF0001C821D821E821CBE9AE09BBF9AB71CBE40
:100B000029E02BBF2AB71CBE8BBF8AB71CBE37E0BB
:100B10003BBF3AB73B838C832D839E8365EC72E0A9
:100B2000CE0101960E94970366E471E085EC92E0A5
:100B30000E9433036FE07AE188E893E00E940703A4
:100B40008DEB91E09093C2028093C10288E893E01C
:100B50009093C0028093BF0282E893E09093BE021C
:100B60008093BD0260E087E00E94B60134E4432E2A
:100B700031E0532E90B381B38927982789276624C3
:100B80006394712C9C012078332787FD02C0712C5F
:100B9000612C8091C3029091C4028615970509F4D7
:100BA000E7C081E090E09A838983A2E0B0E0BC8353
:100BB000AB83232B09F4E9C0E9E4F1E0FE83ED8384
:100BC0000091C1021091C202D801E0E0F1E01D9253
:100BD0003197E9F7D8018C9182648C9311968C91AE
:100BE0001197826011968C93119712968C9112979F
:100BF000826812968C93129713968C9113978D603E
:100C000013968C93139714968DE0E3E5F1E0019031
:100C10000D928A95E1F72B813C8149815A81BA0175
:100C20007695762F662777956795F8018189862BCB
:100C3000B9016F777727862B818B7801F2E1EF0E70
:100C4000F11C452BF1F02130310509F4A3C022300D
:100C5000310509F4B1C0232BA1F4D80152968C912F
:100C60005297846052968C93529784E0FE01359699
:100C7000539601900D928A95E1F77801B7E1EB0E5A
:100C8000F11CE01AF10A1E141F040CF076C18091C9
:100C9000BF029091C002DC01ED91FC910288F389C2
:100CA000E02DA091BD02B091BE025A8649861296EF
:100CB0004D915D916D917C9115974B875C876D8708
:100CC0007E8740EA5FE0BE01675F7F4F09958091B4
:100CD000BF029091C0026091C1027091C202DC011A
:100CE000ED91FC910280F381E02DA701099580919F
:100CF000BF029091C002DC01ED91FC910688F7895A
:100D0000E02D09958091BF029091C002DC01ED9128
:100D1000FC91008CF18DE02D0995892B99F3809140
:100D2000BF029091C0026091C1027091C202DC01C9
:100D3000ED91FC91028CF38DE02D40E051E009959E
:100D4000C090C102D090C202F601F081FF87D601A7
:100D500011962C90312C2114310409F050C08F854C
:100D60008F73813009F009C17092C4026092C3028E
:100D7000A0E0B0E0AB2B09F4FDCE0E947501882302
:100D800009F4F8CE0E940000F5CE8EE491E09E8337
:100D90008D8316CFF80182898860828B88E0FE01FE
:100DA0003596D801539601900D928A95E1F7780116
:100DB000FBE1EF0EF11C65CF6D817E81FB0101909F
:100DC0000020E9F73197E61BF70BD80152968C917A
:100DD0005297E82B5296EC93FB0101900020E9F723
:100DE00031976F01C61AD70AA6017801B3E1EB0E5D
:100DF000F11CC7010E943309EC0CFD1C42CFB1E08D
:100E00002B1A310886010C5F1F4FF601E380F12C8D
:100E100061E070E0C7010E94F2075C01892BB1F428
:100E200061E671E085EC92E00E9433038DEA90E088
:100E30000E948E0368E771E085EC92E00E94330324
:100E400067E471E085EC92E00E943303A701B801EA
:100E5000C5010E9433090E0D1F1D68E070E0C1013D
:100E60000E94F2077C01892BB1F461E671E085EC08
:100E700092E00E94330381EC90E00E948E0368E7C9
:100E800071E085EC92E00E94330367E471E085EC49
:100E900092E00E943303F801B12CA12CA214B304F8
:100EA00008F065C09081991F9927991F292F30E07C
:100EB000D7012D933C93DF018D918D018F77282FE2
:100EC00030E0D70113963C932E931297992329F083
:100ED0008130D1F050F08230E1F0FFEFAF1ABF0A5D
:100EE00088E0E80EF11CF801D9CF4F01B2E08B0E7B
:100EF000911C018110E0A801B401C70104960E9471
:100F00003309080D191DE9CF4F0182E0880E911CAD
:100F1000F0CF4F0192E0890E911C018110E061E059
:100F200070E0C8010E94F207D70115969C938E933A
:100F30001497892BB1F461E671E085EC92E00E9490
:100F4000330386EE90E00E948E0368E771E085EC43
:100F500092E00E94330367E471E085EC92E00E9426
:100F60003303A801B401F70184819581C8CFEC193E
:100F7000FD091E161F060CF4F2CE64E971E085EC43
:100F800092E00E94330366E471E085EC92E00E94F7
:100F90003303EACEA1E21A2EAA1BBB1BFD010DC032
:100FA000AA1FBB1FEE1FFF1FA217B307E407F50719
:100FB00020F0A21BB30BE40BF50B661F771F881FF5
:100FC000991F1A9469F760957095809590959B018B
:100FD000AC01BD01CF010895EE0FFF1F0590F49104
:100FE000E02D09940F931F93CF93DF93869F800189
:100FF000879F100D969F100D1124C8010E940E08A6
:10100000EC01009729F0A80170E060E00E943C0923
:10101000CE01DF91CF911F910F9108950F931F93F0
:10102000CF93DF938230910510F482E090E0E0915D
:10103000AB03F091AC0330E020E0B0E0A0E03097EB
:1010400099F42115310509F44AC0281B390B2430C5
:101050003105D8F58A819B816115710589F1FB0104
:1010600093838283FE0111C04081518102811381EB
:1010700048175907E0F04817590799F4109761F09D
:1010800012960C93129713961C933296CF01DF9110
:10109000CF911F910F9108950093AB031093AC0370
:1010A000F4CF2115310551F04217530738F0A9014B
:1010B000DB019A01BD01DF01F801C1CFEF01F9CFDA
:1010C0009093AC038093AB03CDCFFE01E20FF31FEF
:1010D000819391932250310939832883D7CF20916E
:1010E000A9033091AA03232B41F4209102013091EE
:1010F00003013093AA032093A903209100013091AA
:1011000001012115310541F42DB73EB7409104018D
:1011100050910501241B350BE091A903F091AA031E
:10112000E217F307A0F42E1B3F0B2817390778F0BE
:10113000AC014E5F5F4F2417350748F04E0F5F1F1D
:101140005093AA034093A903819391939FCFF0E01A
:10115000E0E09CCFCF93DF930097E9F0FC0132975A
:1011600013821282A091AB03B091AC03ED0130E089
:1011700020E01097A1F420813181820F931F2091EC
:10118000A9033091AA032817390709F061C0F09329
:10119000AA03E093A903DF91CF910895EA01CE1746
:1011A000DF07E8F54A815B819E0141155105B1F7E2
:1011B000E901FB83EA8349915991C40FD51FEC17CC
:1011C000FD0761F4808191810296840F951FE901EA
:1011D00099838883828193819B838A83F0E0E0E016
:1011E00012968D919C9113970097B9F52D913C9192
:1011F0001197CD010296820F931F2091A903309180
:10120000AA032817390739F6309751F51092AC0325
:101210001092AB03B093AA03A093A903BCCFD383CE
:10122000C28340815181840F951FC817D90761F48B
:101230004E5F5F4F88819981480F591F51834083CA
:101240008A819B81938382832115310509F0B0CF78
:10125000F093AC03E093AB039ECFFD01DC01C0CF64
:1012600013821282D7CFFB01DC0102C001900D92E4
:1012700041505040D8F70895DC0101C06D934150B2
:0A1280005040E0F70895F894FFCF06
:10128A000000AD0380000000000008018901A900E8
:10129A005501DA00B800CC0000000000BA02910241
:1012AA003003F40100033A02FE010703FF02DB02E6
:1012BA00E103D00257020102290319031503F201BF
:1012CA000000000097030D0A00302D3E3100312D39
:1012DA003E300073656E736F725F6368616E676537
:1012EA00004D656D6F727920616C6F636174696F0F
:1012FA006E206572726F7200443A5C505349525CB8
:10130A0070726F6A5C7372635C70726F746F636F12
:10131A006C2E63004572726F723A2074735F6F7538
:10132A007420657865637574696F6E206661696C8F
:04133A0065640000E6
:00000001FF
