:100000000C9461000C9489000C9489000C94890074
:100010000C9489000C9489000C9489000C9489003C
:100020000C9489000C9489000C9489000C9489002C
:100030000C9489000C9489000C9489000C9489001C
:100040000C947A040C9489000C9448040C942204B7
:100050000C9489000C9489000C9489000C948900FC
:100060000C9489000C9489005A7375744574686502
:10007000726E65745544503A3A626567696E5061B4
:10008000636B657428636F6E73742063686172209C
:100090002A686F73742C2075696E7431365F742012
:1000A000706F7274293B206973206E6F74207375B2
:1000B00070706F727465642120536F7272792100C1
:1000C000C40411241FBECFEFD8E0DEBFCDBF11E0C6
:1000D000A0E0B1E0E2EDF3E102C005900D92A23D97
:1000E000B107D9F723E0A2EDB1E001C01D92A33D15
:1000F000B207E1F710E0C1E6D0E004C02197FE01AD
:100100000E948708C036D107C9F70E9443050C94A6
:10011000E7090C940000FC01538D448D252F30E03D
:10012000842F90E0821B930B541710F0CF96089504
:1001300001970895FC01918D828D981761F0A28D31
:10014000AE0FBF2FB11D5D968C91928D9F5F9F73F7
:10015000928F90E008958FEF9FEF0895FC01918DAD
:10016000828D981731F0828DE80FF11D858D90E01A
:1001700008958FEF9FEF0895FC01918D228D892FB7
:1001800090E0805C9F4F821B91098F73992708959F
:10019000FC01A48DA80FB92FB11DA35ABF4F2C91FC
:1001A000848D90E001968F739927848FA689B789F3
:1001B0002C93A089B1898C91837080648C93938DEA
:1001C000848D981306C00288F389E02D80818F7D8D
:1001D00080830895EF92FF920F931F93CF93DF9345
:1001E000EC0181E0888F9B8D8C8D98131AC0E88973
:1001F000F989808185FF15C09FB7F894EE89FF8942
:100200006083E889F98980818370806480839FBFDF
:1002100081E090E0DF91CF911F910F91FF90EF90DF
:100220000895F62E0B8D10E00F5F1F4F0F731127EF
:10023000E02E8C8D8E110CC00FB607FCFACFE8892A
:10024000F989808185FFF5CFCE010E94C800F1CFEA
:10025000EB8DEC0FFD2FF11DE35AFF4FF0829FB79E
:10026000F8940B8FEA89FB8980818062CFCFCF938E
:10027000DF93EC01888D8823B9F0AA89BB89E889CE
:10028000F9898C9185FD03C0808186FD0DC00FB674
:1002900007FCF7CF8C9185FFF2CF808185FFEDCFF2
:1002A000CE010E94C800E9CFDF91CF9108958BEE77
:1002B00092E00E94BC0021E0892B09F420E0822F0B
:1002C000089580E090E0892B29F00E945701811168
:1002D0000C9400000895AF92BF92CF92DF92EF92FC
:1002E000FF920F931F93CF93DF936C017B018B01E0
:1002F000040F151FEB015E01AE18BF08C017D10730
:1003000059F06991D601ED91FC910190F081E02DB9
:10031000C6010995892B79F7C501DF91CF911F910E
:100320000F91FF90EF90DF90CF90BF90AF90089526
:100330003FB7F8948091D7019091D801A091D9014D
:10034000B091DA0126B5A89B05C02F3F19F00196A0
:10035000A11DB11D3FBFBA2FA92F982F8827BC011F
:10036000CD01620F711D811D911D42E0660F771F47
:10037000881F991F4A95D1F7089566B747B728B7E0
:1003800039B770E090E080E0962F882777276627BE
:10039000842B632B722B089581E0089587E08CBF36
:1003A00095EE9BBF1ABE8CBF86EE8BBF1ABE08951A
:1003B00090E080E0089597E09CBF87EE8BBF2AB75E
:1003C0009CBF88EE8BBF8AB7322F282F9CBF85EE4B
:1003D0008BBF8AB79CBF96EE9BBF9AB78927982799
:1003E0008927821B930B4817590708F4CA01A901F2
:1003F0004751584FFB01DB01A80FB91FEA17FB0754
:1004000039F05CBF4BBF6AB761934F5F5F4FF6CF68
:10041000280F391F47E04CBF57EE5BBF3ABF4CBFB8
:1004200038EE3BBF2ABF0895CF93DF931F92CDB71D
:10043000DEB7DC01ED91FC91028CF38DE02D41E003
:1004400050E0BE016F5F7F4F09951816190634F40E
:10045000898190E00F90DF91CF9108958FEF9FEF0A
:10046000F9CFFC0197E09CBF85EE8BBF8AB79CBF9C
:1004700026EE2BBF6AB79CBF27EE2BBF2AB79CBFC7
:1004800098EE9BBF3AB71CBE90E19BBF9AB71CBECB
:100490004FE04BBF4AB71CBE5EE05BBF5AB71CBE05
:1004A0007DE07BBF7AB7708B518B428B938B1CBEE8
:1004B00091E19BBF4AB71CBE92E19BBF9AB7542FF4
:1004C000492F558B448B982F862F2327322723279C
:1004D000821B930B08951CBE83E18BBF8AB71CBEA1
:1004E00094E19BBF9AB7892798278927FB019C0134
:1004F0002B5E3F4FDB01A40FB51FEA17FB0739F056
:1005000061913CBF2BBF6ABF2F5F3F4FF6CF480FB3
:10051000591F1CBE83E18BBF5ABF1CBE84E18BBF39
:100520004ABF90E080E00895CF93DF931F92CDB74C
:10053000DEB76983DC01ED91FC910280F381E02D4F
:1005400041E050E0BE016F5F7F4F09950F90DF9152
:10055000CF9108951CBE1BBE8FEF8ABF1CBE1BBE71
:1005600082E08ABF90E080E00895FB013281238120
:10057000948185811CBE1BBE61E06ABF1CBE6DE01C
:100580006BBF3ABF1CBE3EE03BBF2ABF1CBE2FE084
:100590002BBF9ABF1CBE90E19BBF8ABF1CBE81E1EE
:1005A0008BBF5ABF1CBE82E18BBF4ABF81E090E087
:1005B00008950895DC01ED91FC91008CF18DE02D02
:1005C00009941CBE8BE08BBF7ABF1CBE8CE08BBF36
:1005D0006ABF1CBE1BBE83E08ABF81E00895FC0198
:1005E00084899589089524E431E0FC0131832083D6
:1005F000FB014089518962897389FC0142835383DD
:10060000648375830895DC01ED91FC91028CF38D78
:10061000E02D099490E080E00895FB010190002016
:10062000E9F73197AF01461B570BDC01ED91FC91C7
:100630000280F381E02D09948F929F92AF92BF9236
:10064000EF92FF920F931F93CF93DF93CDB7DEB757
:10065000A1970FB6F894DEBF0FBECDBF7C01FA01A3
:10066000CB0119A2223008F42AE08E010F5D1F4F42
:10067000822E912CB12CA12CBF01A50194010E94C6
:100680006508F901CA016A300CF5605DD8016E9306
:100690008D01232B242B252B79F790E080E01097F8
:1006A00021F0BD01C7010E940D03A1960FB6F89479
:1006B000DEBF0FBECDBFDF91CF911F910F91FF9095
:1006C000EF90BF90AF909F908F900895695CDECFC0
:1006D000CF92DF92EF92FF92CF93DF936B017C0179
:1006E0006DE28BEE92E00E94EA00EC014427552770
:1006F000BA014C195D096E097F092AE08BEE92E080
:100700000E941C038C0F9D1FDF91CF91FF90EF90F3
:10071000DF90CF900895AC01990F660B770B77FFB0
:1007200004C0CB01BA010C9468032AE08BEE92E07E
:100730000C941C038F929F92AF92BF92CF92DF9244
:10074000EF92FF920F931F93CF93DF937C01EB0106
:100750006C0182E0C80ED11C4701E5E08E0E911CB1
:1007600010E000E0F60141916F0150E070E060E0C0
:100770002AE0CE010E941C035C01E881F98101900E
:10078000F081E02D6EE2CE0109958A0D9B1D080FC8
:10079000191FC814D90431F7F701458150E070E002
:1007A00060E02AE0CE010E941C03800F911FDF91C0
:1007B000CF911F910F91FF90EF90DF90CF90BF905E
:1007C000AF909F908F900895BC018BEE92E00C94B7
:1007D0000D03CF93DF93AC01990F660B770B77FF77
:1007E00010C0CB01BA010E946803EC0166E471E01D
:1007F0008BEE92E00E940D038C0F9D1FDF91CF9135
:1008000008952AE08BEE92E00E941C03EECFCF9376
:10081000DF93C8E6D0E0FE016491662339F08BEEE9
:1008200092E00E94EA002196892BA9F766E471E024
:100830008BEE92E00E940D03989590E080E0DF91AE
:10084000CF9108951F920F920FB60F9211242F93FC
:100850003F934F935F936F937F938F939F93AF9348
:10086000BF93EF93FF938BEE92E00E94C800FF913D
:10087000EF91BF91AF919F918F917F916F915F9118
:100880004F913F912F910F900FBE0F901F90189591
:100890001F920F920FB60F9211242F938F939F9355
:1008A000EF93FF93E091FB02F091FC028081E091D5
:1008B0000103F091020382FD1BC09081809104032B
:1008C0008F5F8F7320910503821741F0E09104033D
:1008D000F0E0E551FD4F958F80930403FF91EF9178
:1008E0009F918F912F910F900FBE0F901F90189591
:1008F0008081F4CF1F920F920FB60F9211242F9385
:100900003F938F939F93AF93BF938091D301909127
:10091000D401A091D501B091D6013091D20123E04C
:10092000230F2D3758F50196A11DB11D2093D2013B
:100930008093D3019093D401A093D501B093D601B5
:100940008091D7019091D801A091D901B091DA019D
:100950000196A11DB11D8093D7019093D801A0935A
:10096000D901B093DA01BF91AF919F918F913F91DF
:100970002F910F900FBE0F901F90189526E8230F10
:100980000296A11DB11DD2CFEBEEF2E013821282CE
:1009900048EE53E060E070E04483558366837783DC
:1009A0008AE091E09183808385EC90E0958784874D
:1009B00084EC90E09787868780EC90E0918B808B29
:1009C00081EC90E0938B828B82EC90E0958B848B12
:1009D00086EC90E0978B868B118E128E138E148E80
:1009E000E8E8F3E084E491E091838083128213824B
:1009F00014821582E6E9F3E09183808312821382E8
:100A000014821582EEE8F3E09183808312821382D0
:100A100014821582ECE9F3E09183808312821382C1
:100A200014821582E2EAF3E09183808312821382BA
:100A300014821582E9ECF3E09183808312821382A1
:100A400014821582EEEAF3E0138212824483558306
:100A5000668377832CE131E0318320839787868713
:100A6000108A118A128A138A24E0208FE8EAF3E0C0
:100A70009183808380EC828388EA838388E3848304
:100A800087E685830895CF93DF93CDB7DEB72F97A1
:100A90000FB6F894DEBF0FBECDBF789484B58260E8
:100AA00084BD84B5816084BD85B5826085BD85B512
:100AB000816085BD80916E00816080936E00109290
:100AC000810080918100826080938100809181000B
:100AD000816080938100809180008160809380009C
:100AE0008091B10084608093B1008091B0008160FA
:100AF0008093B00080917A00846080937A00809126
:100B00007A00826080937A0080917A00816080937D
:100B10007A0080917A00806880937A001092C100F8
:100B200088E0809390038093910380939203809355
:100B3000930324E431E03A8329831B821C821D82C3
:100B40001E821CBE9AE09BBF9AB71CBE29E02BBF39
:100B50002AB71CBE8BBF8AB71CBE37E03BBF3AB773
:100B60003B838C832D839E836BEE72E0CE010196D6
:100B70000E949A0366E471E08BEE92E00E940D03FE
:100B80006DE07AE18EEA93E00E94E1028BED91E064
:100B90009093E0028093DF028EEA93E09093DE026E
:100BA0008093DD0288EA93E09093DC028093DB027D
:100BB0000E94BD016093E1027093E2028093E30220
:100BC0009093E4020E9498014B015C01F0EDCF2E5E
:100BD000F7E0DF2EE12CF12C0E94980168197909C9
:100BE0008A099B09683E734081059105A8F321E0BD
:100BF000C21AD108E108F10838EE830E33E0931EE3
:100C0000A11CB11CC114D104E104F10429F78091A5
:100C1000E9029091EA02892B09F020C21A82198216
:100C2000E2E0F0E0FC83EB830091DF021091E00250
:100C3000D801E0E0F1E01D923197E9F7D8018C91FD
:100C400086648C9311968C911197826011968C9387
:100C5000119712968C911297826812968C93129724
:100C600013968C9113978D6013968C93139714960B
:100C70008DE0E9E4F1E001900D928A95E1F72B8196
:100C80003C8149815A81BA017695762F66277795FE
:100C90006795F8018189862BB9016F777727862BB5
:100CA000818B7801F2E1EF0EF11C452BF1F0213040
:100CB000310509F404C12230310509F412C1232B96
:100CC000A1F4D80152968C915297846052968C93DD
:100CD000529784E0FE013596539601900D928A95C5
:100CE000E1F77801B7E1EB0EF11CE01AF10A1E14EE
:100CF0001F040CF090C18091DD029091DE02DC01B6
:100D0000ED91FC910288F389E02DA091DB02B09176
:100D1000DC0224E431E03A87298712964D915D91F7
:100D20006D917C9115974B875C876D877E8740EA34
:100D30005FE0BE01675F7F4F09958091DD02909172
:100D4000DE026091DF027091E002DC01ED91FC9126
:100D50000280F381E02DA70109958091DD02909139
:100D6000DE02DC01ED91FC910688F789E02D099502
:100D70008091DD029091DE02DC01ED91FC91008C0E
:100D8000F18DE02D0995892B99F38091DD029091E9
:100D9000DE026091DF027091E002DC01ED91FC91D6
:100DA000028CF38DE02D40E051E009954090DF0288
:100DB0005090E002F201F081FF87D20111966C9011
:100DC000712C6114710409F474C1B1E06B1A7108DB
:100DD0007201E4E0EE0EF11CD20113960C9110E0CA
:100DE00061E070E0C8010E948D085C01892B81F4EC
:100DF00087E591E00E94E4038DEA90E00E948B0376
:100E00008EE691E00E94E40387E491E00E94E4030F
:100E1000A801B701C5010E94CE090E0D1F1D68E093
:100E200070E0C3010E948D086C01892B81F487E575
:100E300091E00E94E40381EC90E00E948B038EE637
:100E400091E00E94E40387E491E00E94E4037601CC
:100E5000F801312C212C2614370408F0A0C0908111
:100E6000991F9927991F292F30E0D7012D933C9383
:100E7000DF018D918D018F77282F30E0D7011396F8
:100E80003C932E931297992309F45BC0813009F4A7
:100E90004BC008F449C0823009F45BC08AE891E095
:100EA0000E94E40383EF90E00E948B038EE691E0C2
:100EB0000E94E40387E491E00E94E40342C0F80149
:100EC00082898860828B88E0FE013596D80153962E
:100ED00001900D928A95E1F77801FBE1EF0EF11C8C
:100EE00004CF6D817E81FB0101900020E9F73197ED
:100EF000E61BF70BD80152968C915297E82B52962D
:100F0000EC93FB0101900020E9F731976F01C61ABD
:100F1000D70AA6017801B3E1EB0EF11CC7010E94CC
:100F2000CE09EC0CFD1CE1CE8F010E5F1F4F8180BE
:100F3000912CA401B801C70104960E94CE09080DA6
:100F4000191DBFEF2B1A3B0AE8E0EE0EF11CF80169
:100F500082CF8F010E5F1F4F8180912C61E070E086
:100F6000C4010E948D08F70195838483892B81F445
:100F700087E591E00E94E40386EE90E00E948B03F7
:100F80008EE691E00E94E40387E491E00E94E4038E
:100F9000A401B801D70114968D919C91CECFE4198C
:100FA000F5091E161F06BCF58F858F73813099F5E4
:100FB000A30183E0440F551F8A95E1F7B601CE01E6
:100FC00001960E94CE09C5010E944509C6010E94F2
:100FD00045090D811E816DE971E0C8010E94DE099D
:100FE000892B49F48091E7029091E8020196909351
:100FF000E8028093E70262EA71E0C8010E94DE091C
:10100000892B49F48091E5029091E6020196909334
:10101000E6028093E5020E94BD010091E102109179
:10102000E2022091E3023091E402601B710B820B1B
:10103000930B68357B418105910580F00E94BD01CD
:101040006093E1027093E2028093E3029093E402E2
:1010500081E090E09093EA028093E9028091E902B6
:101060009091EA020197C1F487EA91E00E94E403BB
:101070008091E7029091E8020E94E9038CEB91E0F5
:101080000E94E4038091E5029091E6020E94E90348
:101090001092EA021092E902A0E0B0E0AB2B09F452
:1010A00091CD0E945701882309F48CCD0E94000045
:1010B00089CD66246394712C9E012F5F3F4F690197
:1010C00029E4A22E21E0B22E6FCFA1E21A2EAA1B94
:1010D000BB1BFD010DC0AA1FBB1FEE1FFF1FA217E8
:1010E000B307E407F50720F0A21BB30BE40BF50BE5
:1010F000661F771F881F991F1A9469F7609570956E
:10110000809590959B01AC01BD01CF010895EE0F34
:10111000FF1F0590F491E02D09940F931F93CF9337
:10112000DF93869F8001879F100D969F100D1124DD
:10113000C8010E94A908EC01009729F0A80170E0FD
:1011400060E00E94D709CE01DF91CF911F910F91EE
:1011500008950F931F93CF93DF938230910510F47E
:1011600082E090E0E091D103F091D20330E020E002
:10117000B0E0A0E0309799F42115310509F44AC098
:10118000281B390B24303105D8F58A819B816115E4
:10119000710589F1FB0193838283FE0111C04081B7
:1011A00051810281138148175907E0F04817590708
:1011B00099F4109761F012960C93129713961C9362
:1011C0003296CF01DF91CF911F910F910895009337
:1011D000D1031093D203F4CF2115310551F04217FA
:1011E000530738F0A901DB019A01BD01DF01F801C5
:1011F000C1CFEF01F9CF9093D2038093D103CDCF2C
:10120000FE01E20FF31F819391932250310939833C
:101210002883D7CF2091CF033091D003232B41F4E3
:1012200020910201309103013093D0032093CF032A
:1012300020910001309101012115310541F42DB7B4
:101240003EB74091040150910501241B350BE091FC
:10125000CF03F091D003E217F307A0F42E1B3F0B4E
:101260002817390778F0AC014E5F5F4F2417350718
:1012700048F04E0F5F1F5093D0034093CF038193EC
:1012800091939FCFF0E0E0E09CCFCF93DF93009766
:10129000E9F0FC01329713821282A091D103B09140
:1012A000D203ED0130E020E01097A1F420813181DC
:1012B000820F931F2091CF033091D0032817390755
:1012C00009F061C0F093D003E093CF03DF91CF9199
:1012D0000895EA01CE17DF07E8F54A815B819E0198
:1012E00041155105B1F7E901FB83EA834991599111
:1012F000C40FD51FEC17FD0761F480819181029620
:10130000840F951FE90199838883828193819B8350
:101310008A83F0E0E0E012968D919C9113970097FC
:10132000B9F52D913C911197CD010296820F931F33
:101330002091CF033091D0032817390739F6309721
:1013400051F51092D2031092D103B093D003A09321
:10135000CF03BCCFD383C28340815181840F951FBB
:10136000C817D90761F44E5F5F4F88819981480F94
:10137000591F518340838A819B81938382832115E6
:10138000310509F0B0CFF093D203E093D1039ECFA3
:10139000FD01DC01C0CF13821282D7CFFB01DC013B
:1013A00002C001900D9241505040D8F70895DC01E1
:1013B00001C06D9341505040E0F70895FB01DC01FE
:1013C0008D91019080190110D9F3990B0895F8942B
:0213D000FFCF4D
:1013D2000000D303800000000000EA006B018B00D4
:1013E2003701BC009A00AE000000000094026B02BC
:1013F2000A03CE01DA021402D801E102D902B502CF
:101402000704AA023102DB010303F302EF02CC015B
:10141200000000009A030D0A0073656E736F725F1D
:101422006368616E6765004D656D6F727920616CEE
:101432006F636174696F6E206572726F7200443AF5
:101442005C505349525C70726F6A5C7372635C7079
:10145200726F746F636F6C2E6300556E6B6E6F7775
:101462006E206669656C64207479706500302D3E6B
:101472003100312D3E3000302D3E31206368616EE7
:1014820067657320636F756E743A2000312D3E30AC
:10149200206368616E67657320636F756E743A20AE
:0214A200000048
:00000001FF
